{
  "address": "0xe7f1725E7734CE288F8367e1Bb143E90bb3F0512",
  "abi": [
    {
      "inputs": [],
      "stateMutability": "nonpayable",
      "type": "constructor"
    },
    {
      "anonymous": false,
      "inputs": [
        {
          "indexed": true,
          "internalType": "address",
          "name": "owner",
          "type": "address"
        },
        {
          "indexed": true,
          "internalType": "address",
          "name": "spender",
          "type": "address"
        },
        {
          "indexed": false,
          "internalType": "uint256",
          "name": "value",
          "type": "uint256"
        }
      ],
      "name": "Approval",
      "type": "event"
    },
    {
      "anonymous": false,
      "inputs": [
        {
          "indexed": true,
          "internalType": "address",
          "name": "previousOwner",
          "type": "address"
        },
        {
          "indexed": true,
          "internalType": "address",
          "name": "newOwner",
          "type": "address"
        }
      ],
      "name": "OwnershipTransferred",
      "type": "event"
    },
    {
      "anonymous": false,
      "inputs": [
        {
          "indexed": false,
          "internalType": "address",
          "name": "account",
          "type": "address"
        }
      ],
      "name": "Paused",
      "type": "event"
    },
    {
      "anonymous": false,
      "inputs": [
        {
          "indexed": true,
          "internalType": "address",
          "name": "from",
          "type": "address"
        },
        {
          "indexed": true,
          "internalType": "address",
          "name": "to",
          "type": "address"
        },
        {
          "indexed": false,
          "internalType": "uint256",
          "name": "value",
          "type": "uint256"
        }
      ],
      "name": "Transfer",
      "type": "event"
    },
    {
      "anonymous": false,
      "inputs": [
        {
          "indexed": false,
          "internalType": "address",
          "name": "account",
          "type": "address"
        }
      ],
      "name": "Unpaused",
      "type": "event"
    },
    {
      "inputs": [],
      "name": "FC_REWARDS_PER_YEAR",
      "outputs": [
        {
          "internalType": "uint256",
          "name": "",
          "type": "uint256"
        }
      ],
      "stateMutability": "view",
      "type": "function"
    },
    {
      "inputs": [],
      "name": "MAX_FC_REWARDS",
      "outputs": [
        {
          "internalType": "uint256",
          "name": "",
          "type": "uint256"
        }
      ],
      "stateMutability": "view",
      "type": "function"
    },
    {
      "inputs": [],
      "name": "MAX_MCG_REWARDS",
      "outputs": [
        {
          "internalType": "uint256",
          "name": "",
          "type": "uint256"
        }
      ],
      "stateMutability": "view",
      "type": "function"
    },
    {
      "inputs": [],
      "name": "MAX_MG_REWARDS",
      "outputs": [
        {
          "internalType": "uint256",
          "name": "",
          "type": "uint256"
        }
      ],
      "stateMutability": "view",
      "type": "function"
    },
    {
      "inputs": [],
      "name": "MAX_OTHER_REWARDS",
      "outputs": [
        {
          "internalType": "uint256",
          "name": "",
          "type": "uint256"
        }
      ],
      "stateMutability": "view",
      "type": "function"
    },
    {
      "inputs": [],
      "name": "MAX_STAKING_REWARDS",
      "outputs": [
        {
          "internalType": "uint256",
          "name": "",
          "type": "uint256"
        }
      ],
      "stateMutability": "view",
      "type": "function"
    },
    {
      "inputs": [],
      "name": "MAX_TEAM_REWARDS",
      "outputs": [
        {
          "internalType": "uint256",
          "name": "",
          "type": "uint256"
        }
      ],
      "stateMutability": "view",
      "type": "function"
    },
    {
      "inputs": [],
      "name": "MCG_REWARDS_PER_YEAR",
      "outputs": [
        {
          "internalType": "uint256",
          "name": "",
          "type": "uint256"
        }
      ],
      "stateMutability": "view",
      "type": "function"
    },
    {
      "inputs": [],
      "name": "MG_REWARDS_PER_YEAR",
      "outputs": [
        {
          "internalType": "uint256",
          "name": "",
          "type": "uint256"
        }
      ],
      "stateMutability": "view",
      "type": "function"
    },
    {
      "inputs": [],
      "name": "OTHER_REWARDS_PER_YEAR",
      "outputs": [
        {
          "internalType": "uint256",
          "name": "",
          "type": "uint256"
        }
      ],
      "stateMutability": "view",
      "type": "function"
    },
    {
      "inputs": [],
      "name": "STAKING_REWARDS_PER_YEAR",
      "outputs": [
        {
          "internalType": "uint256",
          "name": "",
          "type": "uint256"
        }
      ],
      "stateMutability": "view",
      "type": "function"
    },
    {
      "inputs": [],
      "name": "TEAM_REWARDS_PER_YEAR",
      "outputs": [
        {
          "internalType": "uint256",
          "name": "",
          "type": "uint256"
        }
      ],
      "stateMutability": "view",
      "type": "function"
    },
    {
      "inputs": [
        {
          "internalType": "address",
          "name": "owner",
          "type": "address"
        },
        {
          "internalType": "address",
          "name": "spender",
          "type": "address"
        }
      ],
      "name": "allowance",
      "outputs": [
        {
          "internalType": "uint256",
          "name": "",
          "type": "uint256"
        }
      ],
      "stateMutability": "view",
      "type": "function"
    },
    {
      "inputs": [
        {
          "internalType": "address",
          "name": "spender",
          "type": "address"
        },
        {
          "internalType": "uint256",
          "name": "amount",
          "type": "uint256"
        }
      ],
      "name": "approve",
      "outputs": [
        {
          "internalType": "bool",
          "name": "",
          "type": "bool"
        }
      ],
      "stateMutability": "nonpayable",
      "type": "function"
    },
    {
      "inputs": [
        {
          "internalType": "address",
          "name": "account",
          "type": "address"
        }
      ],
      "name": "balanceOf",
      "outputs": [
        {
          "internalType": "uint256",
          "name": "",
          "type": "uint256"
        }
      ],
      "stateMutability": "view",
      "type": "function"
    },
    {
      "inputs": [
        {
          "internalType": "uint256",
          "name": "amount",
          "type": "uint256"
        }
      ],
      "name": "burn",
      "outputs": [],
      "stateMutability": "nonpayable",
      "type": "function"
    },
    {
      "inputs": [
        {
          "internalType": "address",
          "name": "account",
          "type": "address"
        },
        {
          "internalType": "uint256",
          "name": "amount",
          "type": "uint256"
        }
      ],
      "name": "burnFrom",
      "outputs": [],
      "stateMutability": "nonpayable",
      "type": "function"
    },
    {
      "inputs": [],
      "name": "decimals",
      "outputs": [
        {
          "internalType": "uint8",
          "name": "",
          "type": "uint8"
        }
      ],
      "stateMutability": "view",
      "type": "function"
    },
    {
      "inputs": [
        {
          "internalType": "address",
          "name": "spender",
          "type": "address"
        },
        {
          "internalType": "uint256",
          "name": "subtractedValue",
          "type": "uint256"
        }
      ],
      "name": "decreaseAllowance",
      "outputs": [
        {
          "internalType": "bool",
          "name": "",
          "type": "bool"
        }
      ],
      "stateMutability": "nonpayable",
      "type": "function"
    },
    {
      "inputs": [
        {
          "internalType": "address",
          "name": "spender",
          "type": "address"
        },
        {
          "internalType": "uint256",
          "name": "addedValue",
          "type": "uint256"
        }
      ],
      "name": "increaseAllowance",
      "outputs": [
        {
          "internalType": "bool",
          "name": "",
          "type": "bool"
        }
      ],
      "stateMutability": "nonpayable",
      "type": "function"
    },
    {
      "inputs": [],
      "name": "maximumRewards",
      "outputs": [
        {
          "internalType": "uint256",
          "name": "",
          "type": "uint256"
        }
      ],
      "stateMutability": "pure",
      "type": "function"
    },
    {
      "inputs": [
        {
          "internalType": "address",
          "name": "to",
          "type": "address"
        },
        {
          "internalType": "uint256",
          "name": "amount",
          "type": "uint256"
        }
      ],
      "name": "mintFCRewards",
      "outputs": [],
      "stateMutability": "nonpayable",
      "type": "function"
    },
    {
      "inputs": [
        {
          "internalType": "address",
          "name": "to",
          "type": "address"
        },
        {
          "internalType": "uint256",
          "name": "amount",
          "type": "uint256"
        }
      ],
      "name": "mintMCGRewards",
      "outputs": [],
      "stateMutability": "nonpayable",
      "type": "function"
    },
    {
      "inputs": [
        {
          "internalType": "address",
          "name": "to",
          "type": "address"
        },
        {
          "internalType": "uint256",
          "name": "amount",
          "type": "uint256"
        }
      ],
      "name": "mintMGRewards",
      "outputs": [],
      "stateMutability": "nonpayable",
      "type": "function"
    },
    {
      "inputs": [
        {
          "internalType": "address",
          "name": "to",
          "type": "address"
        },
        {
          "internalType": "uint256",
          "name": "amount",
          "type": "uint256"
        }
      ],
      "name": "mintOtherRewards",
      "outputs": [],
      "stateMutability": "nonpayable",
      "type": "function"
    },
    {
      "inputs": [
        {
          "internalType": "address",
          "name": "to",
          "type": "address"
        },
        {
          "internalType": "uint256",
          "name": "amount",
          "type": "uint256"
        }
      ],
      "name": "mintStakingRewards",
      "outputs": [],
      "stateMutability": "nonpayable",
      "type": "function"
    },
    {
      "inputs": [
        {
          "internalType": "address",
          "name": "to",
          "type": "address"
        },
        {
          "internalType": "uint256",
          "name": "amount",
          "type": "uint256"
        }
      ],
      "name": "mintTeamRewards",
      "outputs": [],
      "stateMutability": "nonpayable",
      "type": "function"
    },
    {
      "inputs": [],
      "name": "name",
      "outputs": [
        {
          "internalType": "string",
          "name": "",
          "type": "string"
        }
      ],
      "stateMutability": "view",
      "type": "function"
    },
    {
      "inputs": [],
      "name": "owner",
      "outputs": [
        {
          "internalType": "address",
          "name": "",
          "type": "address"
        }
      ],
      "stateMutability": "view",
      "type": "function"
    },
    {
      "inputs": [],
      "name": "pause",
      "outputs": [],
      "stateMutability": "nonpayable",
      "type": "function"
    },
    {
      "inputs": [],
      "name": "paused",
      "outputs": [
        {
          "internalType": "bool",
          "name": "",
          "type": "bool"
        }
      ],
      "stateMutability": "view",
      "type": "function"
    },
    {
      "inputs": [],
      "name": "renounceOwnership",
      "outputs": [],
      "stateMutability": "nonpayable",
      "type": "function"
    },
    {
      "inputs": [],
      "name": "startMinting",
      "outputs": [],
      "stateMutability": "nonpayable",
      "type": "function"
    },
    {
      "inputs": [],
      "name": "symbol",
      "outputs": [
        {
          "internalType": "string",
          "name": "",
          "type": "string"
        }
      ],
      "stateMutability": "view",
      "type": "function"
    },
    {
      "inputs": [],
      "name": "totalSupply",
      "outputs": [
        {
          "internalType": "uint256",
          "name": "",
          "type": "uint256"
        }
      ],
      "stateMutability": "view",
      "type": "function"
    },
    {
      "inputs": [
        {
          "internalType": "address",
          "name": "to",
          "type": "address"
        },
        {
          "internalType": "uint256",
          "name": "amount",
          "type": "uint256"
        }
      ],
      "name": "transfer",
      "outputs": [
        {
          "internalType": "bool",
          "name": "",
          "type": "bool"
        }
      ],
      "stateMutability": "nonpayable",
      "type": "function"
    },
    {
      "inputs": [
        {
          "internalType": "address",
          "name": "from",
          "type": "address"
        },
        {
          "internalType": "address",
          "name": "to",
          "type": "address"
        },
        {
          "internalType": "uint256",
          "name": "amount",
          "type": "uint256"
        }
      ],
      "name": "transferFrom",
      "outputs": [
        {
          "internalType": "bool",
          "name": "",
          "type": "bool"
        }
      ],
      "stateMutability": "nonpayable",
      "type": "function"
    },
    {
      "inputs": [
        {
          "internalType": "address",
          "name": "newOwner",
          "type": "address"
        }
      ],
      "name": "transferOwnership",
      "outputs": [],
      "stateMutability": "nonpayable",
      "type": "function"
    },
    {
      "inputs": [],
      "name": "unpause",
      "outputs": [],
      "stateMutability": "nonpayable",
      "type": "function"
    }
  ],
  "transactionHash": "0x4cb9df700362dffb7e7326067b3c0a117659b250840b4127314bd8fb03ec5e23",
  "args": [],
  "numDeployments": 1,
  "solcInputHash": "a9d583b900898df931362c91774a5d24",
  "bytecode": "0x608060405260006006556000600755600060085560006009556000600a556000600b556000600c556000600d553480156200003957600080fd5b506040518060400160405280601481526020017f43727970746f20437269636b657420546f6b656e0000000000000000000000008152506040518060400160405280600481526020017f42414c4c000000000000000000000000000000000000000000000000000000008152508160039081620000b7919062000455565b508060049081620000c9919062000455565b5050506000600560006101000a81548160ff02191690831515021790555062000107620000fb6200010d60201b60201c565b6200011560201b60201c565b6200053c565b600033905090565b6000600560019054906101000a900473ffffffffffffffffffffffffffffffffffffffff16905081600560016101000a81548173ffffffffffffffffffffffffffffffffffffffff021916908373ffffffffffffffffffffffffffffffffffffffff1602179055508173ffffffffffffffffffffffffffffffffffffffff168173ffffffffffffffffffffffffffffffffffffffff167f8be0079c531659141344cd1fd0a4f28419497f9722a3daafe3b4186f6b6457e060405160405180910390a35050565b600081519050919050565b7f4e487b7100000000000000000000000000000000000000000000000000000000600052604160045260246000fd5b7f4e487b7100000000000000000000000000000000000000000000000000000000600052602260045260246000fd5b600060028204905060018216806200025d57607f821691505b60208210810362000273576200027262000215565b5b50919050565b60008190508160005260206000209050919050565b60006020601f8301049050919050565b600082821b905092915050565b600060088302620002dd7fffffffffffffffffffffffffffffffffffffffffffffffffffffffffffffffff826200029e565b620002e986836200029e565b95508019841693508086168417925050509392505050565b6000819050919050565b6000819050919050565b600062000336620003306200032a8462000301565b6200030b565b62000301565b9050919050565b6000819050919050565b620003528362000315565b6200036a62000361826200033d565b848454620002ab565b825550505050565b600090565b6200038162000372565b6200038e81848462000347565b505050565b5b81811015620003b657620003aa60008262000377565b60018101905062000394565b5050565b601f8211156200040557620003cf8162000279565b620003da846200028e565b81016020851015620003ea578190505b62000402620003f9856200028e565b83018262000393565b50505b505050565b600082821c905092915050565b60006200042a600019846008026200040a565b1980831691505092915050565b600062000445838362000417565b9150826002028217905092915050565b6200046082620001db565b67ffffffffffffffff8111156200047c576200047b620001e6565b5b62000488825462000244565b62000495828285620003ba565b600060209050601f831160018114620004cd5760008415620004b8578287015190505b620004c4858262000437565b86555062000534565b601f198416620004dd8662000279565b60005b828110156200050757848901518255600182019150602085019450602081019050620004e0565b8683101562000527578489015162000523601f89168262000417565b8355505b6001600288020188555050505b505050505050565b612c82806200054c6000396000f3fe608060405234801561001057600080fd5b506004361061023d5760003560e01c806370a082311161013b578063a457c2d7116100b8578063d6cb2b5a1161007c578063d6cb2b5a1461064e578063dd62ed3e1461066a578063eae236621461069a578063f2fde38b146106b8578063fcfb0467146106d45761023d565b8063a457c2d714610594578063a9059cbb146105c4578063bdff9450146105f4578063cfd87c3a14610612578063d6ae6f3b146106305761023d565b80638da5cb5b116100ff5780638da5cb5b146105145780638f51f2e01461053257806395d89b411461054e5780639a65ea261461056c578063a2f20a43146105765761023d565b806370a0823114610496578063715018a6146104c657806379cc6790146104d05780637dcd218b146104ec5780638456cb591461050a5761023d565b8063313ce567116101c9578063513edcfa1161018d578063513edcfa14610402578063562d69da146104205780635c975abb1461043c578063652d7afd1461045a5780636bf8af39146104785761023d565b8063313ce56714610370578063395093511461038e5780633f4ba83a146103be57806342966c68146103c857806344a087e7146103e45761023d565b806313da59f51161021057806313da59f5146102ca57806318160ddd146102e8578063188779331461030657806320c28f9a1461032457806323b872dd146103405761023d565b80630194a7ca1461024257806306fdde031461025e578063095ea7b31461027c578063112d1d53146102ac575b600080fd5b61025c60048036038101906102579190611ec1565b6106f0565b005b610266610795565b6040516102739190611f91565b60405180910390f35b61029660048036038101906102919190611ec1565b610827565b6040516102a39190611fce565b60405180910390f35b6102b461084a565b6040516102c19190611ff8565b60405180910390f35b6102d2610870565b6040516102df9190611ff8565b60405180910390f35b6102f0610896565b6040516102fd9190611ff8565b60405180910390f35b61030e6108a0565b60405161031b9190611ff8565b60405180910390f35b61033e60048036038101906103399190611ec1565b610963565b005b61035a60048036038101906103559190612013565b6109fc565b6040516103679190611fce565b60405180910390f35b610378610a2b565b6040516103859190612082565b60405180910390f35b6103a860048036038101906103a39190611ec1565b610a34565b6040516103b59190611fce565b60405180910390f35b6103c6610a6b565b005b6103e260048036038101906103dd919061209d565b610a7d565b005b6103ec610a91565b6040516103f99190611ff8565b60405180910390f35b61040a610aab565b6040516104179190611ff8565b60405180910390f35b61043a60048036038101906104359190611ec1565b610ac5565b005b610444610b6a565b6040516104519190611fce565b60405180910390f35b610462610b81565b60405161046f9190611ff8565b60405180910390f35b610480610b9b565b60405161048d9190611ff8565b60405180910390f35b6104b060048036038101906104ab91906120ca565b610bb5565b6040516104bd9190611ff8565b60405180910390f35b6104ce610bfd565b005b6104ea60048036038101906104e59190611ec1565b610c11565b005b6104f4610c31565b6040516105019190611ff8565b60405180910390f35b610512610c57565b005b61051c610c69565b6040516105299190612106565b60405180910390f35b61054c60048036038101906105479190611ec1565b610c93565b005b610556610d38565b6040516105639190611f91565b60405180910390f35b610574610dca565b005b61057e610e46565b60405161058b9190611ff8565b60405180910390f35b6105ae60048036038101906105a99190611ec1565b610e60565b6040516105bb9190611fce565b60405180910390f35b6105de60048036038101906105d99190611ec1565b610ed7565b6040516105eb9190611fce565b60405180910390f35b6105fc610efa565b6040516106099190611ff8565b60405180910390f35b61061a610f14565b6040516106279190611ff8565b60405180910390f35b610638610f2e565b6040516106459190611ff8565b60405180910390f35b61066860048036038101906106639190611ec1565b610f54565b005b610684600480360381019061067f9190612121565b610ff9565b6040516106919190611ff8565b60405180910390f35b6106a2611080565b6040516106af9190611ff8565b60405180910390f35b6106d260048036038101906106cd91906120ca565b6110a6565b005b6106ee60048036038101906106e99190611ec1565b611129565b005b6106f86111ce565b61077882826040518060400160405280600f81526020017f5374616b696e6720526577617264730000000000000000000000000000000000815250600654600a69d3c21bcecceda1000000600a61074f9190612190565b6107599190612201565b69d3c21bcecceda1000000600a6107709190612190565b600b5461124c565b80600b600082825461078a9190612232565b925050819055505050565b6060600380546107a490612295565b80601f01602080910402602001604051908101604052809291908181526020018280546107d090612295565b801561081d5780601f106107f25761010080835404028352916020019161081d565b820191906000526020600020905b81548152906001019060200180831161080057829003601f168201915b5050505050905090565b6000806108326113a9565b905061083f8185856113b1565b600191505092915050565b600a69d3c21bcecceda100000060056108639190612190565b61086d9190612201565b81565b600a69d3c21bcecceda1000000600a6108899190612190565b6108939190612201565b81565b6000600254905090565b600069d3c21bcecceda100000060116108b99190612190565b69d3c21bcecceda1000000600d6108d09190612190565b69d3c21bcecceda1000000600a6108e79190612190565b69d3c21bcecceda100000060326108fe9190612190565b69d3c21bcecceda100000060056109159190612190565b69d3c21bcecceda1000000600561092c9190612190565b6109369190612232565b6109409190612232565b61094a9190612232565b6109549190612232565b61095e9190612232565b905090565b61096b6111ce565b6109df82826040518060400160405280600d81526020017f4f7468657220526577617264730000000000000000000000000000000000000081525060065469d3c21bcecceda100000060116109c09190612190565b69d3c21bcecceda100000060116109d79190612190565b600d5461124c565b80600d60008282546109f19190612232565b925050819055505050565b600080610a076113a9565b9050610a1485828561157a565b610a1f858585611606565b60019150509392505050565b60006012905090565b600080610a3f6113a9565b9050610a60818585610a518589610ff9565b610a5b9190612232565b6113b1565b600191505092915050565b610a736111ce565b610a7b61187c565b565b610a8e610a886113a9565b826118df565b50565b69d3c21bcecceda10000006011610aa89190612190565b81565b69d3c21bcecceda10000006005610ac29190612190565b81565b610acd6111ce565b610b4d82826040518060400160405280601e81526020017f4d657461766572736520437269636b65742047616d6520526577617264730000815250600654600a69d3c21bcecceda10000006032610b249190612190565b610b2e9190612201565b69d3c21bcecceda10000006032610b459190612190565b600a5461124c565b80600a6000828254610b5f9190612232565b925050819055505050565b6000600560009054906101000a900460ff16905090565b69d3c21bcecceda1000000600a610b989190612190565b81565b69d3c21bcecceda10000006005610bb29190612190565b81565b60008060008373ffffffffffffffffffffffffffffffffffffffff1673ffffffffffffffffffffffffffffffffffffffff168152602001908152602001600020549050919050565b610c056111ce565b610c0f6000611aac565b565b610c2382610c1d6113a9565b8361157a565b610c2d82826118df565b5050565b600269d3c21bcecceda1000000600d610c4a9190612190565b610c549190612201565b81565b610c5f6111ce565b610c67611b72565b565b6000600560019054906101000a900473ffffffffffffffffffffffffffffffffffffffff16905090565b610c9b6111ce565b610d1b82826040518060400160405280601781526020017f46616e7461737920437269636b65742052657761726473000000000000000000815250600654600a69d3c21bcecceda10000006005610cf29190612190565b610cfc9190612201565b69d3c21bcecceda10000006005610d139190612190565b60095461124c565b8060096000828254610d2d9190612232565b925050819055505050565b606060048054610d4790612295565b80601f0160208091040260200160405190810160405280929190818152602001828054610d7390612295565b8015610dc05780601f10610d9557610100808354040283529160200191610dc0565b820191906000526020600020905b815481529060010190602001808311610da357829003601f168201915b5050505050905090565b610dd26111ce565b6000600654148015610de657506000600754145b610e25576040517f08c379a0000000000000000000000000000000000000000000000000000000008152600401610e1c90612312565b60405180910390fd5b426006819055506301e13380600654610e3e9190612232565b600781905550565b69d3c21bcecceda1000000600d610e5d9190612190565b81565b600080610e6b6113a9565b90506000610e798286610ff9565b905083811015610ebe576040517f08c379a0000000000000000000000000000000000000000000000000000000008152600401610eb5906123a4565b60405180910390fd5b610ecb82868684036113b1565b60019250505092915050565b600080610ee26113a9565b9050610eef818585611606565b600191505092915050565b69d3c21bcecceda10000006011610f119190612190565b81565b69d3c21bcecceda10000006032610f2b9190612190565b81565b600a69d3c21bcecceda10000006005610f479190612190565b610f519190612201565b81565b610f5c6111ce565b610fdc82826040518060400160405280601281526020017f4d696e692047616d657320526577617264730000000000000000000000000000815250600654600a69d3c21bcecceda10000006005610fb39190612190565b610fbd9190612201565b69d3c21bcecceda10000006005610fd49190612190565b60085461124c565b8060086000828254610fee9190612232565b925050819055505050565b6000600160008473ffffffffffffffffffffffffffffffffffffffff1673ffffffffffffffffffffffffffffffffffffffff16815260200190815260200160002060008373ffffffffffffffffffffffffffffffffffffffff1673ffffffffffffffffffffffffffffffffffffffff16815260200190815260200160002054905092915050565b600a69d3c21bcecceda100000060326110999190612190565b6110a39190612201565b81565b6110ae6111ce565b600073ffffffffffffffffffffffffffffffffffffffff168173ffffffffffffffffffffffffffffffffffffffff160361111d576040517f08c379a000000000000000000000000000000000000000000000000000000000815260040161111490612436565b60405180910390fd5b61112681611aac565b50565b6111316111ce565b6111b182826040518060400160405280600c81526020017f5465616d20526577617264730000000000000000000000000000000000000000815250600754600269d3c21bcecceda1000000600d6111889190612190565b6111929190612201565b69d3c21bcecceda1000000600d6111a99190612190565b600c5461124c565b80600c60008282546111c39190612232565b925050819055505050565b6111d66113a9565b73ffffffffffffffffffffffffffffffffffffffff166111f4610c69565b73ffffffffffffffffffffffffffffffffffffffff161461124a576040517f08c379a0000000000000000000000000000000000000000000000000000000008152600401611241906124a2565b60405180910390fd5b565b6000861161128f576040517f08c379a00000000000000000000000000000000000000000000000000000000081526004016112869061250e565b60405180910390fd5b600084116112d2576040517f08c379a00000000000000000000000000000000000000000000000000000000081526004016112c99061257a565b60405180910390fd5b60006112dd85611bd5565b9050600060026001836112f09190612232565b83876112fc9190612190565b6113069190612190565b6113109190612201565b905083811061131f5783611321565b805b9050878361132f9190612232565b811015876040516020016113439190612648565b60405160208183030381529060405290611393576040517f08c379a000000000000000000000000000000000000000000000000000000000815260040161138a9190611f91565b60405180910390fd5b5061139e8989611c1d565b505050505050505050565b600033905090565b600073ffffffffffffffffffffffffffffffffffffffff168373ffffffffffffffffffffffffffffffffffffffff1603611420576040517f08c379a0000000000000000000000000000000000000000000000000000000008152600401611417906126dc565b60405180910390fd5b600073ffffffffffffffffffffffffffffffffffffffff168273ffffffffffffffffffffffffffffffffffffffff160361148f576040517f08c379a00000000000000000000000000000000000000000000000000000000081526004016114869061276e565b60405180910390fd5b80600160008573ffffffffffffffffffffffffffffffffffffffff1673ffffffffffffffffffffffffffffffffffffffff16815260200190815260200160002060008473ffffffffffffffffffffffffffffffffffffffff1673ffffffffffffffffffffffffffffffffffffffff168152602001908152602001600020819055508173ffffffffffffffffffffffffffffffffffffffff168373ffffffffffffffffffffffffffffffffffffffff167f8c5be1e5ebec7d5bd14f71427d1e84f3dd0314c0f7b2291e5b200ac8c7c3b9258360405161156d9190611ff8565b60405180910390a3505050565b60006115868484610ff9565b90507fffffffffffffffffffffffffffffffffffffffffffffffffffffffffffffffff811461160057818110156115f2576040517f08c379a00000000000000000000000000000000000000000000000000000000081526004016115e9906127da565b60405180910390fd5b6115ff84848484036113b1565b5b50505050565b600073ffffffffffffffffffffffffffffffffffffffff168373ffffffffffffffffffffffffffffffffffffffff1603611675576040517f08c379a000000000000000000000000000000000000000000000000000000000815260040161166c9061286c565b60405180910390fd5b600073ffffffffffffffffffffffffffffffffffffffff168273ffffffffffffffffffffffffffffffffffffffff16036116e4576040517f08c379a00000000000000000000000000000000000000000000000000000000081526004016116db906128fe565b60405180910390fd5b6116ef838383611d73565b60008060008573ffffffffffffffffffffffffffffffffffffffff1673ffffffffffffffffffffffffffffffffffffffff16815260200190815260200160002054905081811015611775576040517f08c379a000000000000000000000000000000000000000000000000000000000815260040161176c90612990565b60405180910390fd5b8181036000808673ffffffffffffffffffffffffffffffffffffffff1673ffffffffffffffffffffffffffffffffffffffff16815260200190815260200160002081905550816000808573ffffffffffffffffffffffffffffffffffffffff1673ffffffffffffffffffffffffffffffffffffffff168152602001908152602001600020600082825401925050819055508273ffffffffffffffffffffffffffffffffffffffff168473ffffffffffffffffffffffffffffffffffffffff167fddf252ad1be2c89b69c2b068fc378daa952ba7f163c4a11628f55a4df523b3ef846040516118639190611ff8565b60405180910390a3611876848484611d8b565b50505050565b611884611d90565b6000600560006101000a81548160ff0219169083151502179055507f5db9ee0a495bf2e6ff9c91a7834c1ba4fdd244a5e8aa4e537bd38aeae4b073aa6118c86113a9565b6040516118d59190612106565b60405180910390a1565b600073ffffffffffffffffffffffffffffffffffffffff168273ffffffffffffffffffffffffffffffffffffffff160361194e576040517f08c379a000000000000000000000000000000000000000000000000000000000815260040161194590612a22565b60405180910390fd5b61195a82600083611d73565b60008060008473ffffffffffffffffffffffffffffffffffffffff1673ffffffffffffffffffffffffffffffffffffffff168152602001908152602001600020549050818110156119e0576040517f08c379a00000000000000000000000000000000000000000000000000000000081526004016119d790612ab4565b60405180910390fd5b8181036000808573ffffffffffffffffffffffffffffffffffffffff1673ffffffffffffffffffffffffffffffffffffffff1681526020019081526020016000208190555081600260008282540392505081905550600073ffffffffffffffffffffffffffffffffffffffff168373ffffffffffffffffffffffffffffffffffffffff167fddf252ad1be2c89b69c2b068fc378daa952ba7f163c4a11628f55a4df523b3ef84604051611a939190611ff8565b60405180910390a3611aa783600084611d8b565b505050565b6000600560019054906101000a900473ffffffffffffffffffffffffffffffffffffffff16905081600560016101000a81548173ffffffffffffffffffffffffffffffffffffffff021916908373ffffffffffffffffffffffffffffffffffffffff1602179055508173ffffffffffffffffffffffffffffffffffffffff168173ffffffffffffffffffffffffffffffffffffffff167f8be0079c531659141344cd1fd0a4f28419497f9722a3daafe3b4186f6b6457e060405160405180910390a35050565b611b7a611dd9565b6001600560006101000a81548160ff0219169083151502179055507f62e78cea01bee320cd4e420270b5ea74000d11b0c9f74754ebdbfc544b05a258611bbe6113a9565b604051611bcb9190612106565b60405180910390a1565b60008042905082811115611c125760016301e133808483611bf69190612ad4565b611c009190612201565b611c0a9190612232565b915050611c18565b60009150505b919050565b600073ffffffffffffffffffffffffffffffffffffffff168273ffffffffffffffffffffffffffffffffffffffff1603611c8c576040517f08c379a0000000000000000000000000000000000000000000000000000000008152600401611c8390612b54565b60405180910390fd5b611c9860008383611d73565b8060026000828254611caa9190612232565b92505081905550806000808473ffffffffffffffffffffffffffffffffffffffff1673ffffffffffffffffffffffffffffffffffffffff168152602001908152602001600020600082825401925050819055508173ffffffffffffffffffffffffffffffffffffffff16600073ffffffffffffffffffffffffffffffffffffffff167fddf252ad1be2c89b69c2b068fc378daa952ba7f163c4a11628f55a4df523b3ef83604051611d5b9190611ff8565b60405180910390a3611d6f60008383611d8b565b5050565b611d7b611dd9565b611d86838383611e23565b505050565b505050565b611d98610b6a565b611dd7576040517f08c379a0000000000000000000000000000000000000000000000000000000008152600401611dce90612bc0565b60405180910390fd5b565b611de1610b6a565b15611e21576040517f08c379a0000000000000000000000000000000000000000000000000000000008152600401611e1890612c2c565b60405180910390fd5b565b505050565b600080fd5b600073ffffffffffffffffffffffffffffffffffffffff82169050919050565b6000611e5882611e2d565b9050919050565b611e6881611e4d565b8114611e7357600080fd5b50565b600081359050611e8581611e5f565b92915050565b6000819050919050565b611e9e81611e8b565b8114611ea957600080fd5b50565b600081359050611ebb81611e95565b92915050565b60008060408385031215611ed857611ed7611e28565b5b6000611ee685828601611e76565b9250506020611ef785828601611eac565b9150509250929050565b600081519050919050565b600082825260208201905092915050565b60005b83811015611f3b578082015181840152602081019050611f20565b60008484015250505050565b6000601f19601f8301169050919050565b6000611f6382611f01565b611f6d8185611f0c565b9350611f7d818560208601611f1d565b611f8681611f47565b840191505092915050565b60006020820190508181036000830152611fab8184611f58565b905092915050565b60008115159050919050565b611fc881611fb3565b82525050565b6000602082019050611fe36000830184611fbf565b92915050565b611ff281611e8b565b82525050565b600060208201905061200d6000830184611fe9565b92915050565b60008060006060848603121561202c5761202b611e28565b5b600061203a86828701611e76565b935050602061204b86828701611e76565b925050604061205c86828701611eac565b9150509250925092565b600060ff82169050919050565b61207c81612066565b82525050565b60006020820190506120976000830184612073565b92915050565b6000602082840312156120b3576120b2611e28565b5b60006120c184828501611eac565b91505092915050565b6000602082840312156120e0576120df611e28565b5b60006120ee84828501611e76565b91505092915050565b61210081611e4d565b82525050565b600060208201905061211b60008301846120f7565b92915050565b6000806040838503121561213857612137611e28565b5b600061214685828601611e76565b925050602061215785828601611e76565b9150509250929050565b7f4e487b7100000000000000000000000000000000000000000000000000000000600052601160045260246000fd5b600061219b82611e8b565b91506121a683611e8b565b92508282026121b481611e8b565b915082820484148315176121cb576121ca612161565b5b5092915050565b7f4e487b7100000000000000000000000000000000000000000000000000000000600052601260045260246000fd5b600061220c82611e8b565b915061221783611e8b565b925082612227576122266121d2565b5b828204905092915050565b600061223d82611e8b565b915061224883611e8b565b92508282019050808211156122605761225f612161565b5b92915050565b7f4e487b7100000000000000000000000000000000000000000000000000000000600052602260045260246000fd5b600060028204905060018216806122ad57607f821691505b6020821081036122c0576122bf612266565b5b50919050565b7f4d696e74696e672068617320616c726561647920636f6d6d656e636564000000600082015250565b60006122fc601d83611f0c565b9150612307826122c6565b602082019050919050565b6000602082019050818103600083015261232b816122ef565b9050919050565b7f45524332303a2064656372656173656420616c6c6f77616e63652062656c6f7760008201527f207a65726f000000000000000000000000000000000000000000000000000000602082015250565b600061238e602583611f0c565b915061239982612332565b604082019050919050565b600060208201905081810360008301526123bd81612381565b9050919050565b7f4f776e61626c653a206e6577206f776e657220697320746865207a65726f206160008201527f6464726573730000000000000000000000000000000000000000000000000000602082015250565b6000612420602683611f0c565b915061242b826123c4565b604082019050919050565b6000602082019050818103600083015261244f81612413565b9050919050565b7f4f776e61626c653a2063616c6c6572206973206e6f7420746865206f776e6572600082015250565b600061248c602083611f0c565b915061249782612456565b602082019050919050565b600060208201905081810360008301526124bb8161247f565b9050919050565b7f4e6f7420612076616c696420616d6f756e740000000000000000000000000000600082015250565b60006124f8601283611f0c565b9150612503826124c2565b602082019050919050565b60006020820190508181036000830152612527816124eb565b9050919050565b7f4d696e74696e6720686173206e6f742079657420626567756e00000000000000600082015250565b6000612564601983611f0c565b915061256f8261252e565b602082019050919050565b6000602082019050818103600083015261259381612557565b9050919050565b600081905092915050565b60006125b082611f01565b6125ba818561259a565b93506125ca818560208601611f1d565b80840191505092915050565b7f3a457863656564696e6720746865207065726d69737369626c65206c696d697460008201527f20666f72206d696e74696e670000000000000000000000000000000000000000602082015250565b6000612632602c8361259a565b915061263d826125d6565b602c82019050919050565b600061265482846125a5565b915061265f82612625565b915081905092915050565b7f45524332303a20617070726f76652066726f6d20746865207a65726f2061646460008201527f7265737300000000000000000000000000000000000000000000000000000000602082015250565b60006126c6602483611f0c565b91506126d18261266a565b604082019050919050565b600060208201905081810360008301526126f5816126b9565b9050919050565b7f45524332303a20617070726f766520746f20746865207a65726f20616464726560008201527f7373000000000000000000000000000000000000000000000000000000000000602082015250565b6000612758602283611f0c565b9150612763826126fc565b604082019050919050565b600060208201905081810360008301526127878161274b565b9050919050565b7f45524332303a20696e73756666696369656e7420616c6c6f77616e6365000000600082015250565b60006127c4601d83611f0c565b91506127cf8261278e565b602082019050919050565b600060208201905081810360008301526127f3816127b7565b9050919050565b7f45524332303a207472616e736665722066726f6d20746865207a65726f20616460008201527f6472657373000000000000000000000000000000000000000000000000000000602082015250565b6000612856602583611f0c565b9150612861826127fa565b604082019050919050565b6000602082019050818103600083015261288581612849565b9050919050565b7f45524332303a207472616e7366657220746f20746865207a65726f206164647260008201527f6573730000000000000000000000000000000000000000000000000000000000602082015250565b60006128e8602383611f0c565b91506128f38261288c565b604082019050919050565b60006020820190508181036000830152612917816128db565b9050919050565b7f45524332303a207472616e7366657220616d6f756e742065786365656473206260008201527f616c616e63650000000000000000000000000000000000000000000000000000602082015250565b600061297a602683611f0c565b91506129858261291e565b604082019050919050565b600060208201905081810360008301526129a98161296d565b9050919050565b7f45524332303a206275726e2066726f6d20746865207a65726f2061646472657360008201527f7300000000000000000000000000000000000000000000000000000000000000602082015250565b6000612a0c602183611f0c565b9150612a17826129b0565b604082019050919050565b60006020820190508181036000830152612a3b816129ff565b9050919050565b7f45524332303a206275726e20616d6f756e7420657863656564732062616c616e60008201527f6365000000000000000000000000000000000000000000000000000000000000602082015250565b6000612a9e602283611f0c565b9150612aa982612a42565b604082019050919050565b60006020820190508181036000830152612acd81612a91565b9050919050565b6000612adf82611e8b565b9150612aea83611e8b565b9250828203905081811115612b0257612b01612161565b5b92915050565b7f45524332303a206d696e7420746f20746865207a65726f206164647265737300600082015250565b6000612b3e601f83611f0c565b9150612b4982612b08565b602082019050919050565b60006020820190508181036000830152612b6d81612b31565b9050919050565b7f5061757361626c653a206e6f7420706175736564000000000000000000000000600082015250565b6000612baa601483611f0c565b9150612bb582612b74565b602082019050919050565b60006020820190508181036000830152612bd981612b9d565b9050919050565b7f5061757361626c653a2070617573656400000000000000000000000000000000600082015250565b6000612c16601083611f0c565b9150612c2182612be0565b602082019050919050565b60006020820190508181036000830152612c4581612c09565b905091905056fea264697066735822122036dfc28922a29ba09ea63dc33335693e125188298aa96e1a7a4b0b1ac18ea0fa64736f6c63430008120033",
  "devdoc": {
    "events": {
      "Approval(address,address,uint256)": {
        "details": "Emitted when the allowance of a `spender` for an `owner` is set by a call to {approve}. `value` is the new allowance."
      },
      "Paused(address)": {
        "details": "Emitted when the pause is triggered by `account`."
      },
      "Transfer(address,address,uint256)": {
        "details": "Emitted when `value` tokens are moved from one account (`from`) to another (`to`). Note that `value` may be zero."
      },
      "Unpaused(address)": {
        "details": "Emitted when the pause is lifted by `account`."
      }
    },
    "kind": "dev",
    "methods": {
      "allowance(address,address)": {
        "details": "See {IERC20-allowance}."
      },
      "approve(address,uint256)": {
        "details": "See {IERC20-approve}. NOTE: If `amount` is the maximum `uint256`, the allowance is not updated on `transferFrom`. This is semantically equivalent to an infinite approval. Requirements: - `spender` cannot be the zero address."
      },
      "balanceOf(address)": {
        "details": "See {IERC20-balanceOf}."
      },
      "burn(uint256)": {
        "details": "Destroys `amount` tokens from the caller. See {ERC20-_burn}."
      },
      "burnFrom(address,uint256)": {
        "details": "Destroys `amount` tokens from `account`, deducting from the caller's allowance. See {ERC20-_burn} and {ERC20-allowance}. Requirements: - the caller must have allowance for ``accounts``'s tokens of at least `amount`."
      },
      "decimals()": {
        "details": "Returns the number of decimals used to get its user representation. For example, if `decimals` equals `2`, a balance of `505` tokens should be displayed to a user as `5.05` (`505 / 10 ** 2`). Tokens usually opt for a value of 18, imitating the relationship between Ether and Wei. This is the value {ERC20} uses, unless this function is overridden; NOTE: This information is only used for _display_ purposes: it in no way affects any of the arithmetic of the contract, including {IERC20-balanceOf} and {IERC20-transfer}."
      },
      "decreaseAllowance(address,uint256)": {
        "details": "Atomically decreases the allowance granted to `spender` by the caller. This is an alternative to {approve} that can be used as a mitigation for problems described in {IERC20-approve}. Emits an {Approval} event indicating the updated allowance. Requirements: - `spender` cannot be the zero address. - `spender` must have allowance for the caller of at least `subtractedValue`."
      },
      "increaseAllowance(address,uint256)": {
        "details": "Atomically increases the allowance granted to `spender` by the caller. This is an alternative to {approve} that can be used as a mitigation for problems described in {IERC20-approve}. Emits an {Approval} event indicating the updated allowance. Requirements: - `spender` cannot be the zero address."
      },
      "name()": {
        "details": "Returns the name of the token."
      },
      "owner()": {
        "details": "Returns the address of the current owner."
      },
      "paused()": {
        "details": "Returns true if the contract is paused, and false otherwise."
      },
      "renounceOwnership()": {
        "details": "Leaves the contract without owner. It will not be possible to call `onlyOwner` functions anymore. Can only be called by the current owner. NOTE: Renouncing ownership will leave the contract without an owner, thereby removing any functionality that is only available to the owner."
      },
      "symbol()": {
        "details": "Returns the symbol of the token, usually a shorter version of the name."
      },
      "totalSupply()": {
        "details": "See {IERC20-totalSupply}."
      },
      "transfer(address,uint256)": {
        "details": "See {IERC20-transfer}. Requirements: - `to` cannot be the zero address. - the caller must have a balance of at least `amount`."
      },
      "transferFrom(address,address,uint256)": {
        "details": "See {IERC20-transferFrom}. Emits an {Approval} event indicating the updated allowance. This is not required by the EIP. See the note at the beginning of {ERC20}. NOTE: Does not update the allowance if the current allowance is the maximum `uint256`. Requirements: - `from` and `to` cannot be the zero address. - `from` must have a balance of at least `amount`. - the caller must have allowance for ``from``'s tokens of at least `amount`."
      },
      "transferOwnership(address)": {
        "details": "Transfers ownership of the contract to a new account (`newOwner`). Can only be called by the current owner."
      }
    },
    "version": 1
  },
  "userdoc": {
    "kind": "user",
    "methods": {},
    "version": 1
  },
  "storageLayout": {
    "storage": [
      {
        "astId": 625,
        "contract": "contracts/Token.sol:CryptoCricketToken",
        "label": "_balances",
        "offset": 0,
        "slot": "0",
        "type": "t_mapping(t_address,t_uint256)"
      },
      {
        "astId": 631,
        "contract": "contracts/Token.sol:CryptoCricketToken",
        "label": "_allowances",
        "offset": 0,
        "slot": "1",
        "type": "t_mapping(t_address,t_mapping(t_address,t_uint256))"
      },
      {
        "astId": 633,
        "contract": "contracts/Token.sol:CryptoCricketToken",
        "label": "_totalSupply",
        "offset": 0,
        "slot": "2",
        "type": "t_uint256"
      },
      {
        "astId": 635,
        "contract": "contracts/Token.sol:CryptoCricketToken",
        "label": "_name",
        "offset": 0,
        "slot": "3",
        "type": "t_string_storage"
      },
      {
        "astId": 637,
        "contract": "contracts/Token.sol:CryptoCricketToken",
        "label": "_symbol",
        "offset": 0,
        "slot": "4",
        "type": "t_string_storage"
      },
      {
        "astId": 519,
        "contract": "contracts/Token.sol:CryptoCricketToken",
        "label": "_paused",
        "offset": 0,
        "slot": "5",
        "type": "t_bool"
      },
      {
        "astId": 396,
        "contract": "contracts/Token.sol:CryptoCricketToken",
        "label": "_owner",
        "offset": 1,
        "slot": "5",
        "type": "t_address"
      },
      {
        "astId": 2743,
        "contract": "contracts/Token.sol:CryptoCricketToken",
        "label": "mintingStartTime",
        "offset": 0,
        "slot": "6",
        "type": "t_uint256"
      },
      {
        "astId": 2746,
        "contract": "contracts/Token.sol:CryptoCricketToken",
        "label": "teamMintingStartTime",
        "offset": 0,
        "slot": "7",
        "type": "t_uint256"
      },
      {
        "astId": 2749,
        "contract": "contracts/Token.sol:CryptoCricketToken",
        "label": "mintedMGRewards",
        "offset": 0,
        "slot": "8",
        "type": "t_uint256"
      },
      {
        "astId": 2752,
        "contract": "contracts/Token.sol:CryptoCricketToken",
        "label": "mintedFCRewards",
        "offset": 0,
        "slot": "9",
        "type": "t_uint256"
      },
      {
        "astId": 2755,
        "contract": "contracts/Token.sol:CryptoCricketToken",
        "label": "mintedMCGRewards",
        "offset": 0,
        "slot": "10",
        "type": "t_uint256"
      },
      {
        "astId": 2758,
        "contract": "contracts/Token.sol:CryptoCricketToken",
        "label": "mintedStakingRewards",
        "offset": 0,
        "slot": "11",
        "type": "t_uint256"
      },
      {
        "astId": 2761,
        "contract": "contracts/Token.sol:CryptoCricketToken",
        "label": "mintedTeamRewards",
        "offset": 0,
        "slot": "12",
        "type": "t_uint256"
      },
      {
        "astId": 2764,
        "contract": "contracts/Token.sol:CryptoCricketToken",
        "label": "mintedOtherRewards",
        "offset": 0,
        "slot": "13",
        "type": "t_uint256"
      }
    ],
    "types": {
      "t_address": {
        "encoding": "inplace",
        "label": "address",
        "numberOfBytes": "20"
      },
      "t_bool": {
        "encoding": "inplace",
        "label": "bool",
        "numberOfBytes": "1"
      },
      "t_mapping(t_address,t_mapping(t_address,t_uint256))": {
        "encoding": "mapping",
        "key": "t_address",
        "label": "mapping(address => mapping(address => uint256))",
        "numberOfBytes": "32",
        "value": "t_mapping(t_address,t_uint256)"
      },
      "t_mapping(t_address,t_uint256)": {
        "encoding": "mapping",
        "key": "t_address",
        "label": "mapping(address => uint256)",
        "numberOfBytes": "32",
        "value": "t_uint256"
      },
      "t_string_storage": {
        "encoding": "bytes",
        "label": "string",
        "numberOfBytes": "32"
      },
      "t_uint256": {
        "encoding": "inplace",
        "label": "uint256",
        "numberOfBytes": "32"
      }
    }
  }
}