{
  "address": "0x5FbDB2315678afecb367f032d93F642f64180aa3",
  "abi": [
    {
      "inputs": [
        {
          "internalType": "address",
          "name": "_adminAddress",
          "type": "address"
        }
      ],
      "stateMutability": "nonpayable",
      "type": "constructor"
    },
    {
      "anonymous": false,
      "inputs": [
        {
          "indexed": false,
          "internalType": "address",
          "name": "account",
          "type": "address"
        }
      ],
      "name": "Paused",
      "type": "event"
    },
    {
      "anonymous": false,
      "inputs": [
        {
          "indexed": true,
          "internalType": "bytes32",
          "name": "role",
          "type": "bytes32"
        },
        {
          "indexed": true,
          "internalType": "bytes32",
          "name": "previousAdminRole",
          "type": "bytes32"
        },
        {
          "indexed": true,
          "internalType": "bytes32",
          "name": "newAdminRole",
          "type": "bytes32"
        }
      ],
      "name": "RoleAdminChanged",
      "type": "event"
    },
    {
      "anonymous": false,
      "inputs": [
        {
          "indexed": true,
          "internalType": "bytes32",
          "name": "role",
          "type": "bytes32"
        },
        {
          "indexed": true,
          "internalType": "address",
          "name": "account",
          "type": "address"
        },
        {
          "indexed": true,
          "internalType": "address",
          "name": "sender",
          "type": "address"
        }
      ],
      "name": "RoleGranted",
      "type": "event"
    },
    {
      "anonymous": false,
      "inputs": [
        {
          "indexed": true,
          "internalType": "bytes32",
          "name": "role",
          "type": "bytes32"
        },
        {
          "indexed": true,
          "internalType": "address",
          "name": "account",
          "type": "address"
        },
        {
          "indexed": true,
          "internalType": "address",
          "name": "sender",
          "type": "address"
        }
      ],
      "name": "RoleRevoked",
      "type": "event"
    },
    {
      "anonymous": false,
      "inputs": [
        {
          "indexed": false,
          "internalType": "address",
          "name": "account",
          "type": "address"
        }
      ],
      "name": "Unpaused",
      "type": "event"
    },
    {
      "anonymous": false,
      "inputs": [
        {
          "indexed": false,
          "internalType": "string",
          "name": "_token",
          "type": "string"
        },
        {
          "indexed": false,
          "internalType": "uint256",
          "name": "_quantity",
          "type": "uint256"
        },
        {
          "indexed": false,
          "internalType": "address",
          "name": "_from",
          "type": "address"
        }
      ],
      "name": "onDeposit",
      "type": "event"
    },
    {
      "anonymous": false,
      "inputs": [
        {
          "indexed": false,
          "internalType": "string",
          "name": "_token",
          "type": "string"
        },
        {
          "indexed": false,
          "internalType": "uint256",
          "name": "_quantity",
          "type": "uint256"
        },
        {
          "indexed": false,
          "internalType": "address",
          "name": "_to",
          "type": "address"
        }
      ],
      "name": "onWithdraw",
      "type": "event"
    },
    {
      "inputs": [],
      "name": "ACCOUNTANT_ROLE",
      "outputs": [
        {
          "internalType": "bytes32",
          "name": "",
          "type": "bytes32"
        }
      ],
      "stateMutability": "view",
      "type": "function"
    },
    {
      "inputs": [
        {
          "internalType": "string",
          "name": "_token",
          "type": "string"
        },
        {
          "internalType": "address",
          "name": "_contractAddress",
          "type": "address"
        }
      ],
      "name": "AddTokenAndAddress",
      "outputs": [],
      "stateMutability": "nonpayable",
      "type": "function"
    },
    {
      "inputs": [],
      "name": "DEFAULT_ADMIN_ROLE",
      "outputs": [
        {
          "internalType": "bytes32",
          "name": "",
          "type": "bytes32"
        }
      ],
      "stateMutability": "view",
      "type": "function"
    },
    {
      "inputs": [],
      "name": "PAUSER_ROLE",
      "outputs": [
        {
          "internalType": "bytes32",
          "name": "",
          "type": "bytes32"
        }
      ],
      "stateMutability": "view",
      "type": "function"
    },
    {
      "inputs": [
        {
          "internalType": "string",
          "name": "_token",
          "type": "string"
        },
        {
          "internalType": "uint256",
          "name": "_quantity",
          "type": "uint256"
        }
      ],
      "name": "deposit",
      "outputs": [],
      "stateMutability": "nonpayable",
      "type": "function"
    },
    {
      "inputs": [
        {
          "internalType": "bytes32",
          "name": "role",
          "type": "bytes32"
        }
      ],
      "name": "getRoleAdmin",
      "outputs": [
        {
          "internalType": "bytes32",
          "name": "",
          "type": "bytes32"
        }
      ],
      "stateMutability": "view",
      "type": "function"
    },
    {
      "inputs": [
        {
          "internalType": "bytes32",
          "name": "role",
          "type": "bytes32"
        },
        {
          "internalType": "address",
          "name": "account",
          "type": "address"
        }
      ],
      "name": "grantRole",
      "outputs": [],
      "stateMutability": "nonpayable",
      "type": "function"
    },
    {
      "inputs": [
        {
          "internalType": "bytes32",
          "name": "role",
          "type": "bytes32"
        },
        {
          "internalType": "address",
          "name": "account",
          "type": "address"
        }
      ],
      "name": "hasRole",
      "outputs": [
        {
          "internalType": "bool",
          "name": "",
          "type": "bool"
        }
      ],
      "stateMutability": "view",
      "type": "function"
    },
    {
      "inputs": [
        {
          "internalType": "string",
          "name": "",
          "type": "string"
        }
      ],
      "name": "mapTokenToContractAddress",
      "outputs": [
        {
          "internalType": "address",
          "name": "",
          "type": "address"
        }
      ],
      "stateMutability": "view",
      "type": "function"
    },
    {
      "inputs": [],
      "name": "pause",
      "outputs": [],
      "stateMutability": "nonpayable",
      "type": "function"
    },
    {
      "inputs": [],
      "name": "paused",
      "outputs": [
        {
          "internalType": "bool",
          "name": "",
          "type": "bool"
        }
      ],
      "stateMutability": "view",
      "type": "function"
    },
    {
      "inputs": [
        {
          "internalType": "bytes32",
          "name": "role",
          "type": "bytes32"
        },
        {
          "internalType": "address",
          "name": "account",
          "type": "address"
        }
      ],
      "name": "renounceRole",
      "outputs": [],
      "stateMutability": "nonpayable",
      "type": "function"
    },
    {
      "inputs": [
        {
          "internalType": "bytes32",
          "name": "role",
          "type": "bytes32"
        },
        {
          "internalType": "address",
          "name": "account",
          "type": "address"
        }
      ],
      "name": "revokeRole",
      "outputs": [],
      "stateMutability": "nonpayable",
      "type": "function"
    },
    {
      "inputs": [
        {
          "internalType": "bytes4",
          "name": "interfaceId",
          "type": "bytes4"
        }
      ],
      "name": "supportsInterface",
      "outputs": [
        {
          "internalType": "bool",
          "name": "",
          "type": "bool"
        }
      ],
      "stateMutability": "view",
      "type": "function"
    },
    {
      "inputs": [],
      "name": "unpause",
      "outputs": [],
      "stateMutability": "nonpayable",
      "type": "function"
    },
    {
      "inputs": [
        {
          "internalType": "string",
          "name": "_token",
          "type": "string"
        },
        {
          "internalType": "uint256",
          "name": "_quantity",
          "type": "uint256"
        },
        {
          "internalType": "address",
          "name": "_to",
          "type": "address"
        }
      ],
      "name": "withdraw",
      "outputs": [],
      "stateMutability": "nonpayable",
      "type": "function"
    }
  ],
  "transactionHash": "0x73dc3006a18e9a3d5f748f35554598ccd1992659daed24a2d649b0c8850194e6",
  "args": [
    "0xf39Fd6e51aad88F6F4ce6aB8827279cffFb92266"
  ],
  "numDeployments": 1,
  "solcInputHash": "a9d583b900898df931362c91774a5d24",
  "bytecode": "0x60806040523480156200001157600080fd5b5060405162001ffc38038062001ffc833981810160405281019062000037919062000329565b60008060006101000a81548160ff021916908315150217905550620000666000801b82620000d760201b60201c565b6200009b7f65d7a28e3265b37a6474929f336521b332c1681b933f6cb9f3376673440d862a6000801b620001c860201b60201c565b620000d07f369da55721ba2b3acddd63aac7d6512c3e5762a78fa01c44f423f97868330c346000801b620001c860201b60201c565b506200035b565b620000e982826200022c60201b60201c565b620001c457600180600084815260200190815260200160002060000160008373ffffffffffffffffffffffffffffffffffffffff1673ffffffffffffffffffffffffffffffffffffffff16815260200190815260200160002060006101000a81548160ff021916908315150217905550620001696200029760201b60201c565b73ffffffffffffffffffffffffffffffffffffffff168173ffffffffffffffffffffffffffffffffffffffff16837f2f8788117e7eff1d82e926ec794901d17c78024a50270940304540a733656f0d60405160405180910390a45b5050565b6000620001db836200029f60201b60201c565b90508160016000858152602001908152602001600020600101819055508181847fbd79b86ffe0ab8e8776151514217cd7cacd52c909f66475c3af44e129f0b00ff60405160405180910390a4505050565b60006001600084815260200190815260200160002060000160008373ffffffffffffffffffffffffffffffffffffffff1673ffffffffffffffffffffffffffffffffffffffff16815260200190815260200160002060009054906101000a900460ff16905092915050565b600033905090565b600060016000838152602001908152602001600020600101549050919050565b600080fd5b600073ffffffffffffffffffffffffffffffffffffffff82169050919050565b6000620002f182620002c4565b9050919050565b6200030381620002e4565b81146200030f57600080fd5b50565b6000815190506200032381620002f8565b92915050565b600060208284031215620003425762000341620002bf565b5b6000620003528482850162000312565b91505092915050565b611c91806200036b6000396000f3fe608060405234801561001057600080fd5b50600436106101005760003560e01c80638456cb5911610097578063ab1efbab11610066578063ab1efbab14610285578063d547741f146102a3578063d6c4f5ef146102bf578063e63ab1e9146102db57610100565b80638456cb59146102115780638e27d7191461021b57806391d1485414610237578063a217fddf1461026757610100565b80633f4ba83a116100d35780633f4ba83a1461019d5780634301e477146101a75780635c975abb146101d75780637804e707146101f557610100565b806301ffc9a714610105578063248a9ca3146101355780632f2ff15d1461016557806336568abe14610181575b600080fd5b61011f600480360381019061011a9190611140565b6102f9565b60405161012c9190611188565b60405180910390f35b61014f600480360381019061014a91906111d9565b610373565b60405161015c9190611215565b60405180910390f35b61017f600480360381019061017a919061128e565b610393565b005b61019b6004803603810190610196919061128e565b6103b4565b005b6101a5610437565b005b6101c160048036038101906101bc9190611414565b61046c565b6040516101ce919061146c565b60405180910390f35b6101df6104b5565b6040516101ec9190611188565b60405180910390f35b61020f600480360381019061020a91906114bd565b6104cb565b005b6102196106d4565b005b6102356004803603810190610230919061152c565b610709565b005b610251600480360381019061024c919061128e565b6108fd565b60405161025e9190611188565b60405180910390f35b61026f610968565b60405161027c9190611215565b60405180910390f35b61028d61096f565b60405161029a9190611215565b60405180910390f35b6102bd60048036038101906102b8919061128e565b610993565b005b6102d960048036038101906102d49190611588565b6109b4565b005b6102e3610a23565b6040516102f09190611215565b60405180910390f35b60007f7965db0b000000000000000000000000000000000000000000000000000000007bffffffffffffffffffffffffffffffffffffffffffffffffffffffff1916827bffffffffffffffffffffffffffffffffffffffffffffffffffffffff1916148061036c575061036b82610a47565b5b9050919050565b600060016000838152602001908152602001600020600101549050919050565b61039c82610373565b6103a581610ab1565b6103af8383610ac5565b505050565b6103bc610ba5565b73ffffffffffffffffffffffffffffffffffffffff168173ffffffffffffffffffffffffffffffffffffffff1614610429576040517f08c379a000000000000000000000000000000000000000000000000000000000815260040161042090611667565b60405180910390fd5b6104338282610bad565b5050565b7f65d7a28e3265b37a6474929f336521b332c1681b933f6cb9f3376673440d862a61046181610ab1565b610469610c8f565b50565b6002818051602081018201805184825260208301602085012081835280955050505050506000915054906101000a900473ffffffffffffffffffffffffffffffffffffffff1681565b60008060009054906101000a900460ff16905090565b6104d3610cf1565b6000801b6104e081610ab1565b60008311610523576040517f08c379a000000000000000000000000000000000000000000000000000000000815260040161051a906116d3565b60405180910390fd5b600073ffffffffffffffffffffffffffffffffffffffff1660028560405161054b9190611764565b908152602001604051809103902060009054906101000a900473ffffffffffffffffffffffffffffffffffffffff1673ffffffffffffffffffffffffffffffffffffffff16036105d0576040517f08c379a00000000000000000000000000000000000000000000000000000000081526004016105c7906117c7565b60405180910390fd5b60006002856040516105e29190611764565b908152602001604051809103902060009054906101000a900473ffffffffffffffffffffffffffffffffffffffff1690508073ffffffffffffffffffffffffffffffffffffffff1663a9059cbb84866040518363ffffffff1660e01b815260040161064e9291906117f6565b6020604051808303816000875af115801561066d573d6000803e3d6000fd5b505050506040513d601f19601f82011682018060405250810190610691919061184b565b507f36386479b0cd1417b43f901a99520f894fad35bf32339ac8e5b8f4affe8fc8f58585856040516106c5939291906118b1565b60405180910390a15050505050565b7f65d7a28e3265b37a6474929f336521b332c1681b933f6cb9f3376673440d862a6106fe81610ab1565b610706610d3b565b50565b6000811161074c576040517f08c379a0000000000000000000000000000000000000000000000000000000008152600401610743906116d3565b60405180910390fd5b600073ffffffffffffffffffffffffffffffffffffffff166002836040516107749190611764565b908152602001604051809103902060009054906101000a900473ffffffffffffffffffffffffffffffffffffffff1673ffffffffffffffffffffffffffffffffffffffff16036107f9576040517f08c379a00000000000000000000000000000000000000000000000000000000081526004016107f0906117c7565b60405180910390fd5b600060028360405161080b9190611764565b908152602001604051809103902060009054906101000a900473ffffffffffffffffffffffffffffffffffffffff1690508073ffffffffffffffffffffffffffffffffffffffff166323b872dd3330856040518463ffffffff1660e01b8152600401610879939291906118ef565b6020604051808303816000875af1158015610898573d6000803e3d6000fd5b505050506040513d601f19601f820116820180604052508101906108bc919061184b565b507f3aee385c127b75a7c258e7b4701d1c40c2394018ab1a5933c138e0b774326c758383336040516108f0939291906118b1565b60405180910390a1505050565b60006001600084815260200190815260200160002060000160008373ffffffffffffffffffffffffffffffffffffffff1673ffffffffffffffffffffffffffffffffffffffff16815260200190815260200160002060009054906101000a900460ff16905092915050565b6000801b81565b7f369da55721ba2b3acddd63aac7d6512c3e5762a78fa01c44f423f97868330c3481565b61099c82610373565b6109a581610ab1565b6109af8383610bad565b505050565b6000801b6109c181610ab1565b816002846040516109d29190611764565b908152602001604051809103902060006101000a81548173ffffffffffffffffffffffffffffffffffffffff021916908373ffffffffffffffffffffffffffffffffffffffff160217905550505050565b7f65d7a28e3265b37a6474929f336521b332c1681b933f6cb9f3376673440d862a81565b60007f01ffc9a7000000000000000000000000000000000000000000000000000000007bffffffffffffffffffffffffffffffffffffffffffffffffffffffff1916827bffffffffffffffffffffffffffffffffffffffffffffffffffffffff1916149050919050565b610ac281610abd610ba5565b610d9d565b50565b610acf82826108fd565b610ba157600180600084815260200190815260200160002060000160008373ffffffffffffffffffffffffffffffffffffffff1673ffffffffffffffffffffffffffffffffffffffff16815260200190815260200160002060006101000a81548160ff021916908315150217905550610b46610ba5565b73ffffffffffffffffffffffffffffffffffffffff168173ffffffffffffffffffffffffffffffffffffffff16837f2f8788117e7eff1d82e926ec794901d17c78024a50270940304540a733656f0d60405160405180910390a45b5050565b600033905090565b610bb782826108fd565b15610c8b5760006001600084815260200190815260200160002060000160008373ffffffffffffffffffffffffffffffffffffffff1673ffffffffffffffffffffffffffffffffffffffff16815260200190815260200160002060006101000a81548160ff021916908315150217905550610c30610ba5565b73ffffffffffffffffffffffffffffffffffffffff168173ffffffffffffffffffffffffffffffffffffffff16837ff6391f5c32d9c69d2a47ea670b442974b53935d1edc7fd64eb21e047a839171b60405160405180910390a45b5050565b610c97610e22565b60008060006101000a81548160ff0219169083151502179055507f5db9ee0a495bf2e6ff9c91a7834c1ba4fdd244a5e8aa4e537bd38aeae4b073aa610cda610ba5565b604051610ce7919061146c565b60405180910390a1565b610cf96104b5565b15610d39576040517f08c379a0000000000000000000000000000000000000000000000000000000008152600401610d3090611972565b60405180910390fd5b565b610d43610cf1565b60016000806101000a81548160ff0219169083151502179055507f62e78cea01bee320cd4e420270b5ea74000d11b0c9f74754ebdbfc544b05a258610d86610ba5565b604051610d93919061146c565b60405180910390a1565b610da782826108fd565b610e1e57610db481610e6b565b610dc28360001c6020610e98565b604051602001610dd3929190611a2a565b6040516020818303038152906040526040517f08c379a0000000000000000000000000000000000000000000000000000000008152600401610e159190611a64565b60405180910390fd5b5050565b610e2a6104b5565b610e69576040517f08c379a0000000000000000000000000000000000000000000000000000000008152600401610e6090611ad2565b60405180910390fd5b565b6060610e918273ffffffffffffffffffffffffffffffffffffffff16601460ff16610e98565b9050919050565b606060006002836002610eab9190611b21565b610eb59190611b63565b67ffffffffffffffff811115610ece57610ecd6112e9565b5b6040519080825280601f01601f191660200182016040528015610f005781602001600182028036833780820191505090505b5090507f300000000000000000000000000000000000000000000000000000000000000081600081518110610f3857610f37611b97565b5b60200101907effffffffffffffffffffffffffffffffffffffffffffffffffffffffffffff1916908160001a9053507f780000000000000000000000000000000000000000000000000000000000000081600181518110610f9c57610f9b611b97565b5b60200101907effffffffffffffffffffffffffffffffffffffffffffffffffffffffffffff1916908160001a90535060006001846002610fdc9190611b21565b610fe69190611b63565b90505b6001811115611086577f3031323334353637383961626364656600000000000000000000000000000000600f86166010811061102857611027611b97565b5b1a60f81b82828151811061103f5761103e611b97565b5b60200101907effffffffffffffffffffffffffffffffffffffffffffffffffffffffffffff1916908160001a905350600485901c94508061107f90611bc6565b9050610fe9565b50600084146110ca576040517f08c379a00000000000000000000000000000000000000000000000000000000081526004016110c190611c3b565b60405180910390fd5b8091505092915050565b6000604051905090565b600080fd5b600080fd5b60007fffffffff0000000000000000000000000000000000000000000000000000000082169050919050565b61111d816110e8565b811461112857600080fd5b50565b60008135905061113a81611114565b92915050565b600060208284031215611156576111556110de565b5b60006111648482850161112b565b91505092915050565b60008115159050919050565b6111828161116d565b82525050565b600060208201905061119d6000830184611179565b92915050565b6000819050919050565b6111b6816111a3565b81146111c157600080fd5b50565b6000813590506111d3816111ad565b92915050565b6000602082840312156111ef576111ee6110de565b5b60006111fd848285016111c4565b91505092915050565b61120f816111a3565b82525050565b600060208201905061122a6000830184611206565b92915050565b600073ffffffffffffffffffffffffffffffffffffffff82169050919050565b600061125b82611230565b9050919050565b61126b81611250565b811461127657600080fd5b50565b60008135905061128881611262565b92915050565b600080604083850312156112a5576112a46110de565b5b60006112b3858286016111c4565b92505060206112c485828601611279565b9150509250929050565b600080fd5b600080fd5b6000601f19601f8301169050919050565b7f4e487b7100000000000000000000000000000000000000000000000000000000600052604160045260246000fd5b611321826112d8565b810181811067ffffffffffffffff821117156113405761133f6112e9565b5b80604052505050565b60006113536110d4565b905061135f8282611318565b919050565b600067ffffffffffffffff82111561137f5761137e6112e9565b5b611388826112d8565b9050602081019050919050565b82818337600083830152505050565b60006113b76113b284611364565b611349565b9050828152602081018484840111156113d3576113d26112d3565b5b6113de848285611395565b509392505050565b600082601f8301126113fb576113fa6112ce565b5b813561140b8482602086016113a4565b91505092915050565b60006020828403121561142a576114296110de565b5b600082013567ffffffffffffffff811115611448576114476110e3565b5b611454848285016113e6565b91505092915050565b61146681611250565b82525050565b6000602082019050611481600083018461145d565b92915050565b6000819050919050565b61149a81611487565b81146114a557600080fd5b50565b6000813590506114b781611491565b92915050565b6000806000606084860312156114d6576114d56110de565b5b600084013567ffffffffffffffff8111156114f4576114f36110e3565b5b611500868287016113e6565b9350506020611511868287016114a8565b925050604061152286828701611279565b9150509250925092565b60008060408385031215611543576115426110de565b5b600083013567ffffffffffffffff811115611561576115606110e3565b5b61156d858286016113e6565b925050602061157e858286016114a8565b9150509250929050565b6000806040838503121561159f5761159e6110de565b5b600083013567ffffffffffffffff8111156115bd576115bc6110e3565b5b6115c9858286016113e6565b92505060206115da85828601611279565b9150509250929050565b600082825260208201905092915050565b7f416363657373436f6e74726f6c3a2063616e206f6e6c792072656e6f756e636560008201527f20726f6c657320666f722073656c660000000000000000000000000000000000602082015250565b6000611651602f836115e4565b915061165c826115f5565b604082019050919050565b6000602082019050818103600083015261168081611644565b9050919050565b7f7175616e74697479206d7573742062652067726561746572207468616e203000600082015250565b60006116bd601f836115e4565b91506116c882611687565b602082019050919050565b600060208201905081810360008301526116ec816116b0565b9050919050565b600081519050919050565b600081905092915050565b60005b8381101561172757808201518184015260208101905061170c565b60008484015250505050565b600061173e826116f3565b61174881856116fe565b9350611758818560208601611709565b80840191505092915050565b60006117708284611733565b915081905092915050565b7f746f6b656e206973206e6f742061646465640000000000000000000000000000600082015250565b60006117b16012836115e4565b91506117bc8261177b565b602082019050919050565b600060208201905081810360008301526117e0816117a4565b9050919050565b6117f081611487565b82525050565b600060408201905061180b600083018561145d565b61181860208301846117e7565b9392505050565b6118288161116d565b811461183357600080fd5b50565b6000815190506118458161181f565b92915050565b600060208284031215611861576118606110de565b5b600061186f84828501611836565b91505092915050565b6000611883826116f3565b61188d81856115e4565b935061189d818560208601611709565b6118a6816112d8565b840191505092915050565b600060608201905081810360008301526118cb8186611878565b90506118da60208301856117e7565b6118e7604083018461145d565b949350505050565b6000606082019050611904600083018661145d565b611911602083018561145d565b61191e60408301846117e7565b949350505050565b7f5061757361626c653a2070617573656400000000000000000000000000000000600082015250565b600061195c6010836115e4565b915061196782611926565b602082019050919050565b6000602082019050818103600083015261198b8161194f565b9050919050565b7f416363657373436f6e74726f6c3a206163636f756e7420000000000000000000600082015250565b60006119c86017836116fe565b91506119d382611992565b601782019050919050565b7f206973206d697373696e6720726f6c6520000000000000000000000000000000600082015250565b6000611a146011836116fe565b9150611a1f826119de565b601182019050919050565b6000611a35826119bb565b9150611a418285611733565b9150611a4c82611a07565b9150611a588284611733565b91508190509392505050565b60006020820190508181036000830152611a7e8184611878565b905092915050565b7f5061757361626c653a206e6f7420706175736564000000000000000000000000600082015250565b6000611abc6014836115e4565b9150611ac782611a86565b602082019050919050565b60006020820190508181036000830152611aeb81611aaf565b9050919050565b7f4e487b7100000000000000000000000000000000000000000000000000000000600052601160045260246000fd5b6000611b2c82611487565b9150611b3783611487565b9250828202611b4581611487565b91508282048414831517611b5c57611b5b611af2565b5b5092915050565b6000611b6e82611487565b9150611b7983611487565b9250828201905080821115611b9157611b90611af2565b5b92915050565b7f4e487b7100000000000000000000000000000000000000000000000000000000600052603260045260246000fd5b6000611bd182611487565b915060008203611be457611be3611af2565b5b600182039050919050565b7f537472696e67733a20686578206c656e67746820696e73756666696369656e74600082015250565b6000611c256020836115e4565b9150611c3082611bef565b602082019050919050565b60006020820190508181036000830152611c5481611c18565b905091905056fea2646970667358221220efd1acf8881e949de22a6c6616f65c0793b984ce51d3f3b54ef968a202d1d47164736f6c63430008120033",
  "devdoc": {
    "events": {
      "Paused(address)": {
        "details": "Emitted when the pause is triggered by `account`."
      },
      "RoleAdminChanged(bytes32,bytes32,bytes32)": {
        "details": "Emitted when `newAdminRole` is set as ``role``'s admin role, replacing `previousAdminRole` `DEFAULT_ADMIN_ROLE` is the starting admin for all roles, despite {RoleAdminChanged} not being emitted signaling this. _Available since v3.1._"
      },
      "RoleGranted(bytes32,address,address)": {
        "details": "Emitted when `account` is granted `role`. `sender` is the account that originated the contract call, an admin role bearer except when using {AccessControl-_setupRole}."
      },
      "RoleRevoked(bytes32,address,address)": {
        "details": "Emitted when `account` is revoked `role`. `sender` is the account that originated the contract call:   - if using `revokeRole`, it is the admin role bearer   - if using `renounceRole`, it is the role bearer (i.e. `account`)"
      },
      "Unpaused(address)": {
        "details": "Emitted when the pause is lifted by `account`."
      }
    },
    "kind": "dev",
    "methods": {
      "getRoleAdmin(bytes32)": {
        "details": "Returns the admin role that controls `role`. See {grantRole} and {revokeRole}. To change a role's admin, use {_setRoleAdmin}."
      },
      "grantRole(bytes32,address)": {
        "details": "Grants `role` to `account`. If `account` had not been already granted `role`, emits a {RoleGranted} event. Requirements: - the caller must have ``role``'s admin role. May emit a {RoleGranted} event."
      },
      "hasRole(bytes32,address)": {
        "details": "Returns `true` if `account` has been granted `role`."
      },
      "paused()": {
        "details": "Returns true if the contract is paused, and false otherwise."
      },
      "renounceRole(bytes32,address)": {
        "details": "Revokes `role` from the calling account. Roles are often managed via {grantRole} and {revokeRole}: this function's purpose is to provide a mechanism for accounts to lose their privileges if they are compromised (such as when a trusted device is misplaced). If the calling account had been revoked `role`, emits a {RoleRevoked} event. Requirements: - the caller must be `account`. May emit a {RoleRevoked} event."
      },
      "revokeRole(bytes32,address)": {
        "details": "Revokes `role` from `account`. If `account` had been granted `role`, emits a {RoleRevoked} event. Requirements: - the caller must have ``role``'s admin role. May emit a {RoleRevoked} event."
      },
      "supportsInterface(bytes4)": {
        "details": "See {IERC165-supportsInterface}."
      }
    },
    "version": 1
  },
  "userdoc": {
    "kind": "user",
    "methods": {},
    "version": 1
  },
  "storageLayout": {
    "storage": [
      {
        "astId": 519,
        "contract": "contracts/Game.sol:Game",
        "label": "_paused",
        "offset": 0,
        "slot": "0",
        "type": "t_bool"
      },
      {
        "astId": 24,
        "contract": "contracts/Game.sol:Game",
        "label": "_roles",
        "offset": 0,
        "slot": "1",
        "type": "t_mapping(t_bytes32,t_struct(RoleData)19_storage)"
      },
      {
        "astId": 2464,
        "contract": "contracts/Game.sol:Game",
        "label": "mapTokenToContractAddress",
        "offset": 0,
        "slot": "2",
        "type": "t_mapping(t_string_memory_ptr,t_address)"
      }
    ],
    "types": {
      "t_address": {
        "encoding": "inplace",
        "label": "address",
        "numberOfBytes": "20"
      },
      "t_bool": {
        "encoding": "inplace",
        "label": "bool",
        "numberOfBytes": "1"
      },
      "t_bytes32": {
        "encoding": "inplace",
        "label": "bytes32",
        "numberOfBytes": "32"
      },
      "t_mapping(t_address,t_bool)": {
        "encoding": "mapping",
        "key": "t_address",
        "label": "mapping(address => bool)",
        "numberOfBytes": "32",
        "value": "t_bool"
      },
      "t_mapping(t_bytes32,t_struct(RoleData)19_storage)": {
        "encoding": "mapping",
        "key": "t_bytes32",
        "label": "mapping(bytes32 => struct AccessControl.RoleData)",
        "numberOfBytes": "32",
        "value": "t_struct(RoleData)19_storage"
      },
      "t_mapping(t_string_memory_ptr,t_address)": {
        "encoding": "mapping",
        "key": "t_string_memory_ptr",
        "label": "mapping(string => address)",
        "numberOfBytes": "32",
        "value": "t_address"
      },
      "t_string_memory_ptr": {
        "encoding": "bytes",
        "label": "string",
        "numberOfBytes": "32"
      },
      "t_struct(RoleData)19_storage": {
        "encoding": "inplace",
        "label": "struct AccessControl.RoleData",
        "members": [
          {
            "astId": 16,
            "contract": "contracts/Game.sol:Game",
            "label": "members",
            "offset": 0,
            "slot": "0",
            "type": "t_mapping(t_address,t_bool)"
          },
          {
            "astId": 18,
            "contract": "contracts/Game.sol:Game",
            "label": "adminRole",
            "offset": 0,
            "slot": "1",
            "type": "t_bytes32"
          }
        ],
        "numberOfBytes": "64"
      }
    }
  }
}