{
  "address": "0x9fE46736679d2D9a65F0992F2272dE9f3c7fa6e0",
  "abi": [
    {
      "inputs": [],
      "name": "Game__Is_Busy",
      "type": "error"
    },
    {
      "inputs": [],
      "name": "Game__Not_Authorised",
      "type": "error"
    },
    {
      "inputs": [
        {
          "internalType": "address",
          "name": "",
          "type": "address"
        }
      ],
      "name": "Not_a_player",
      "type": "error"
    },
    {
      "inputs": [],
      "name": "userRegistration__already_a_player",
      "type": "error"
    },
    {
      "anonymous": false,
      "inputs": [
        {
          "indexed": true,
          "internalType": "address",
          "name": "owner",
          "type": "address"
        },
        {
          "indexed": true,
          "internalType": "address",
          "name": "approved",
          "type": "address"
        },
        {
          "indexed": true,
          "internalType": "uint256",
          "name": "tokenId",
          "type": "uint256"
        }
      ],
      "name": "Approval",
      "type": "event"
    },
    {
      "anonymous": false,
      "inputs": [
        {
          "indexed": true,
          "internalType": "address",
          "name": "owner",
          "type": "address"
        },
        {
          "indexed": true,
          "internalType": "address",
          "name": "operator",
          "type": "address"
        },
        {
          "indexed": false,
          "internalType": "bool",
          "name": "approved",
          "type": "bool"
        }
      ],
      "name": "ApprovalForAll",
      "type": "event"
    },
    {
      "anonymous": false,
      "inputs": [
        {
          "indexed": true,
          "internalType": "address",
          "name": "previousOwner",
          "type": "address"
        },
        {
          "indexed": true,
          "internalType": "address",
          "name": "newOwner",
          "type": "address"
        }
      ],
      "name": "OwnershipTransferred",
      "type": "event"
    },
    {
      "anonymous": false,
      "inputs": [
        {
          "indexed": false,
          "internalType": "address",
          "name": "account",
          "type": "address"
        }
      ],
      "name": "Paused",
      "type": "event"
    },
    {
      "anonymous": false,
      "inputs": [
        {
          "indexed": true,
          "internalType": "address",
          "name": "from",
          "type": "address"
        },
        {
          "indexed": true,
          "internalType": "address",
          "name": "to",
          "type": "address"
        },
        {
          "indexed": true,
          "internalType": "uint256",
          "name": "tokenId",
          "type": "uint256"
        }
      ],
      "name": "Transfer",
      "type": "event"
    },
    {
      "anonymous": false,
      "inputs": [
        {
          "indexed": false,
          "internalType": "address",
          "name": "account",
          "type": "address"
        }
      ],
      "name": "Unpaused",
      "type": "event"
    },
    {
      "anonymous": false,
      "inputs": [
        {
          "indexed": true,
          "internalType": "string",
          "name": "username",
          "type": "string"
        },
        {
          "indexed": false,
          "internalType": "uint256",
          "name": "userId",
          "type": "uint256"
        }
      ],
      "name": "userRegistered",
      "type": "event"
    },
    {
      "anonymous": false,
      "inputs": [
        {
          "indexed": false,
          "internalType": "address",
          "name": "userAddress",
          "type": "address"
        }
      ],
      "name": "userUnregisterd",
      "type": "event"
    },
    {
      "inputs": [],
      "name": "_getPlayerDetails",
      "outputs": [
        {
          "components": [
            {
              "internalType": "string",
              "name": "username",
              "type": "string"
            },
            {
              "internalType": "uint256",
              "name": "Id",
              "type": "uint256"
            }
          ],
          "internalType": "struct UserRegistration.Player",
          "name": "",
          "type": "tuple"
        }
      ],
      "stateMutability": "view",
      "type": "function"
    },
    {
      "inputs": [
        {
          "internalType": "address",
          "name": "_address",
          "type": "address"
        }
      ],
      "name": "_isPlayer",
      "outputs": [
        {
          "internalType": "bool",
          "name": "",
          "type": "bool"
        }
      ],
      "stateMutability": "view",
      "type": "function"
    },
    {
      "inputs": [
        {
          "internalType": "address",
          "name": "to",
          "type": "address"
        },
        {
          "internalType": "uint256",
          "name": "tokenId",
          "type": "uint256"
        }
      ],
      "name": "approve",
      "outputs": [],
      "stateMutability": "nonpayable",
      "type": "function"
    },
    {
      "inputs": [
        {
          "internalType": "address",
          "name": "owner",
          "type": "address"
        }
      ],
      "name": "balanceOf",
      "outputs": [
        {
          "internalType": "uint256",
          "name": "",
          "type": "uint256"
        }
      ],
      "stateMutability": "view",
      "type": "function"
    },
    {
      "inputs": [
        {
          "internalType": "uint256",
          "name": "tokenId",
          "type": "uint256"
        }
      ],
      "name": "burn",
      "outputs": [],
      "stateMutability": "nonpayable",
      "type": "function"
    },
    {
      "inputs": [
        {
          "internalType": "uint256",
          "name": "tokenId",
          "type": "uint256"
        }
      ],
      "name": "getApproved",
      "outputs": [
        {
          "internalType": "address",
          "name": "",
          "type": "address"
        }
      ],
      "stateMutability": "view",
      "type": "function"
    },
    {
      "inputs": [
        {
          "internalType": "address",
          "name": "owner",
          "type": "address"
        },
        {
          "internalType": "address",
          "name": "operator",
          "type": "address"
        }
      ],
      "name": "isApprovedForAll",
      "outputs": [
        {
          "internalType": "bool",
          "name": "",
          "type": "bool"
        }
      ],
      "stateMutability": "view",
      "type": "function"
    },
    {
      "inputs": [],
      "name": "name",
      "outputs": [
        {
          "internalType": "string",
          "name": "",
          "type": "string"
        }
      ],
      "stateMutability": "view",
      "type": "function"
    },
    {
      "inputs": [],
      "name": "owner",
      "outputs": [
        {
          "internalType": "address",
          "name": "",
          "type": "address"
        }
      ],
      "stateMutability": "view",
      "type": "function"
    },
    {
      "inputs": [
        {
          "internalType": "uint256",
          "name": "tokenId",
          "type": "uint256"
        }
      ],
      "name": "ownerOf",
      "outputs": [
        {
          "internalType": "address",
          "name": "",
          "type": "address"
        }
      ],
      "stateMutability": "view",
      "type": "function"
    },
    {
      "inputs": [],
      "name": "pause",
      "outputs": [],
      "stateMutability": "nonpayable",
      "type": "function"
    },
    {
      "inputs": [],
      "name": "paused",
      "outputs": [
        {
          "internalType": "bool",
          "name": "",
          "type": "bool"
        }
      ],
      "stateMutability": "view",
      "type": "function"
    },
    {
      "inputs": [
        {
          "internalType": "string",
          "name": "_username",
          "type": "string"
        }
      ],
      "name": "register",
      "outputs": [],
      "stateMutability": "nonpayable",
      "type": "function"
    },
    {
      "inputs": [],
      "name": "renounceOwnership",
      "outputs": [],
      "stateMutability": "nonpayable",
      "type": "function"
    },
    {
      "inputs": [
        {
          "internalType": "address",
          "name": "from",
          "type": "address"
        },
        {
          "internalType": "address",
          "name": "to",
          "type": "address"
        },
        {
          "internalType": "uint256",
          "name": "tokenId",
          "type": "uint256"
        }
      ],
      "name": "safeTransferFrom",
      "outputs": [],
      "stateMutability": "nonpayable",
      "type": "function"
    },
    {
      "inputs": [
        {
          "internalType": "address",
          "name": "from",
          "type": "address"
        },
        {
          "internalType": "address",
          "name": "to",
          "type": "address"
        },
        {
          "internalType": "uint256",
          "name": "tokenId",
          "type": "uint256"
        },
        {
          "internalType": "bytes",
          "name": "data",
          "type": "bytes"
        }
      ],
      "name": "safeTransferFrom",
      "outputs": [],
      "stateMutability": "nonpayable",
      "type": "function"
    },
    {
      "inputs": [
        {
          "internalType": "address",
          "name": "operator",
          "type": "address"
        },
        {
          "internalType": "bool",
          "name": "approved",
          "type": "bool"
        }
      ],
      "name": "setApprovalForAll",
      "outputs": [],
      "stateMutability": "nonpayable",
      "type": "function"
    },
    {
      "inputs": [
        {
          "internalType": "bytes4",
          "name": "interfaceId",
          "type": "bytes4"
        }
      ],
      "name": "supportsInterface",
      "outputs": [
        {
          "internalType": "bool",
          "name": "",
          "type": "bool"
        }
      ],
      "stateMutability": "view",
      "type": "function"
    },
    {
      "inputs": [],
      "name": "symbol",
      "outputs": [
        {
          "internalType": "string",
          "name": "",
          "type": "string"
        }
      ],
      "stateMutability": "view",
      "type": "function"
    },
    {
      "inputs": [
        {
          "internalType": "uint256",
          "name": "tokenId",
          "type": "uint256"
        }
      ],
      "name": "tokenURI",
      "outputs": [
        {
          "internalType": "string",
          "name": "",
          "type": "string"
        }
      ],
      "stateMutability": "view",
      "type": "function"
    },
    {
      "inputs": [
        {
          "internalType": "address",
          "name": "from",
          "type": "address"
        },
        {
          "internalType": "address",
          "name": "to",
          "type": "address"
        },
        {
          "internalType": "uint256",
          "name": "tokenId",
          "type": "uint256"
        }
      ],
      "name": "transferFrom",
      "outputs": [],
      "stateMutability": "nonpayable",
      "type": "function"
    },
    {
      "inputs": [
        {
          "internalType": "address",
          "name": "newOwner",
          "type": "address"
        }
      ],
      "name": "transferOwnership",
      "outputs": [],
      "stateMutability": "nonpayable",
      "type": "function"
    },
    {
      "inputs": [
        {
          "internalType": "uint256",
          "name": "_tokenId",
          "type": "uint256"
        }
      ],
      "name": "unRegister",
      "outputs": [],
      "stateMutability": "nonpayable",
      "type": "function"
    },
    {
      "inputs": [],
      "name": "unpause",
      "outputs": [],
      "stateMutability": "nonpayable",
      "type": "function"
    },
    {
      "inputs": [
        {
          "internalType": "address",
          "name": "",
          "type": "address"
        }
      ],
      "name": "waiting_time",
      "outputs": [
        {
          "internalType": "uint256",
          "name": "",
          "type": "uint256"
        }
      ],
      "stateMutability": "view",
      "type": "function"
    }
  ],
  "transactionHash": "0xb5166026c2475267d21a02c3dac3f2ee0d3b70e57d4a9741c06999f4550fae67",
  "args": [],
  "numDeployments": 1,
  "solcInputHash": "be0c20bb9b125efd0924899fcc112259",
  "bytecode": "0x60806040526103e860005560405180608001604052806040518060800160405280604181526020016200451b6041913981526020016040518060600160405280604081526020016200455c6040913981526020016040518060800160405280604181526020016200459c6041913981526020016040518060600160405280602e8152602001620045dd602e9139815250600c906004620000a192919062000251565b50348015620000af57600080fd5b506040518060400160405280600a81526020017f57656c636f6d654b6974000000000000000000000000000000000000000000008152506040518060400160405280600381526020017f4b6974000000000000000000000000000000000000000000000000000000000081525081600390816200012d9190620005b8565b5080600490816200013f9190620005b8565b5050506000600a60006101000a81548160ff0219169083151502179055506200017d620001716200018360201b60201c565b6200018b60201b60201c565b6200069f565b600033905090565b6000600a60019054906101000a900473ffffffffffffffffffffffffffffffffffffffff16905081600a60016101000a81548173ffffffffffffffffffffffffffffffffffffffff021916908373ffffffffffffffffffffffffffffffffffffffff1602179055508173ffffffffffffffffffffffffffffffffffffffff168173ffffffffffffffffffffffffffffffffffffffff167f8be0079c531659141344cd1fd0a4f28419497f9722a3daafe3b4186f6b6457e060405160405180910390a35050565b8280548282559060005260206000209081019282156200029e579160200282015b828111156200029d5782518290816200028c9190620005b8565b509160200191906001019062000272565b5b509050620002ad9190620002b1565b5090565b5b80821115620002d55760008181620002cb9190620002d9565b50600101620002b2565b5090565b508054620002e790620003a7565b6000825580601f10620002fb57506200031c565b601f0160209004906000526020600020908101906200031b91906200031f565b5b50565b5b808211156200033a57600081600090555060010162000320565b5090565b600081519050919050565b7f4e487b7100000000000000000000000000000000000000000000000000000000600052604160045260246000fd5b7f4e487b7100000000000000000000000000000000000000000000000000000000600052602260045260246000fd5b60006002820490506001821680620003c057607f821691505b602082108103620003d657620003d562000378565b5b50919050565b60008190508160005260206000209050919050565b60006020601f8301049050919050565b600082821b905092915050565b600060088302620004407fffffffffffffffffffffffffffffffffffffffffffffffffffffffffffffffff8262000401565b6200044c868362000401565b95508019841693508086168417925050509392505050565b6000819050919050565b6000819050919050565b600062000499620004936200048d8462000464565b6200046e565b62000464565b9050919050565b6000819050919050565b620004b58362000478565b620004cd620004c482620004a0565b8484546200040e565b825550505050565b600090565b620004e4620004d5565b620004f1818484620004aa565b505050565b5b8181101562000519576200050d600082620004da565b600181019050620004f7565b5050565b601f82111562000568576200053281620003dc565b6200053d84620003f1565b810160208510156200054d578190505b620005656200055c85620003f1565b830182620004f6565b50505b505050565b600082821c905092915050565b60006200058d600019846008026200056d565b1980831691505092915050565b6000620005a883836200057a565b9150826002028217905092915050565b620005c3826200033e565b67ffffffffffffffff811115620005df57620005de62000349565b5b620005eb8254620003a7565b620005f88282856200051d565b600060209050601f8311600181146200063057600084156200061b578287015190505b6200062785826200059a565b86555062000697565b601f1984166200064086620003dc565b60005b828110156200066a5784890151825560018201915060208501945060208101905062000643565b868310156200068a578489015162000686601f8916826200057a565b8355505b6001600288020188555050505b505050505050565b613e6c80620006af6000396000f3fe608060405234801561001057600080fd5b50600436106101735760003560e01c806370a08231116100de578063b88d4fde11610097578063e985e9c511610071578063e985e9c514610410578063f242508c14610440578063f2c298be14610470578063f2fde38b1461048c57610173565b8063b88d4fde146103a8578063c87b56dd146103c4578063c8858c96146103f457610173565b806370a082311461030c578063715018a61461033c5780638456cb59146103465780638da5cb5b1461035057806395d89b411461036e578063a22cb4651461038c57610173565b8063398cedf411610130578063398cedf41461024c5780633f4ba83a1461027c57806342842e0e1461028657806342966c68146102a25780635c975abb146102be5780636352211e146102dc57610173565b806301ffc9a7146101785780630392b558146101a857806306fdde03146101c6578063081812fc146101e4578063095ea7b31461021457806323b872dd14610230575b600080fd5b610192600480360381019061018d91906128b7565b6104a8565b60405161019f91906128ff565b60405180910390f35b6101b061058a565b6040516101bd9190612a00565b60405180910390f35b6101ce61067d565b6040516101db9190612a6c565b60405180910390f35b6101fe60048036038101906101f99190612aba565b61070f565b60405161020b9190612b28565b60405180910390f35b61022e60048036038101906102299190612b6f565b610755565b005b61024a60048036038101906102459190612baf565b61086c565b005b61026660048036038101906102619190612c02565b6108cc565b60405161027391906128ff565b60405180910390f35b610284610922565b005b6102a0600480360381019061029b9190612baf565b610934565b005b6102bc60048036038101906102b79190612aba565b610954565b005b6102c66109b0565b6040516102d391906128ff565b60405180910390f35b6102f660048036038101906102f19190612aba565b6109c7565b6040516103039190612b28565b60405180910390f35b61032660048036038101906103219190612c02565b610a4d565b6040516103339190612c3e565b60405180910390f35b610344610b04565b005b61034e610b18565b005b610358610b2a565b6040516103659190612b28565b60405180910390f35b610376610b54565b6040516103839190612a6c565b60405180910390f35b6103a660048036038101906103a19190612c85565b610be6565b005b6103c260048036038101906103bd9190612dfa565b610bfc565b005b6103de60048036038101906103d99190612aba565b610c5e565b6040516103eb9190612a6c565b60405180910390f35b61040e60048036038101906104099190612aba565b610c70565b005b61042a60048036038101906104259190612e7d565b610cfa565b60405161043791906128ff565b60405180910390f35b61045a60048036038101906104559190612c02565b610d8e565b6040516104679190612c3e565b60405180910390f35b61048a60048036038101906104859190612f5e565b610da6565b005b6104a660048036038101906104a19190612c02565b610dbc565b005b60007f80ac58cd000000000000000000000000000000000000000000000000000000007bffffffffffffffffffffffffffffffffffffffffffffffffffffffff1916827bffffffffffffffffffffffffffffffffffffffffffffffffffffffff1916148061057357507f5b5e139f000000000000000000000000000000000000000000000000000000007bffffffffffffffffffffffffffffffffffffffffffffffffffffffff1916827bffffffffffffffffffffffffffffffffffffffffffffffffffffffff1916145b80610583575061058282610e3f565b5b9050919050565b6105926127d4565b600160003373ffffffffffffffffffffffffffffffffffffffff1673ffffffffffffffffffffffffffffffffffffffff1681526020019081526020016000206040518060400160405290816000820180546105ec90612fd6565b80601f016020809104026020016040519081016040528092919081815260200182805461061890612fd6565b80156106655780601f1061063a57610100808354040283529160200191610665565b820191906000526020600020905b81548152906001019060200180831161064857829003601f168201915b50505050508152602001600182015481525050905090565b60606003805461068c90612fd6565b80601f01602080910402602001604051908101604052809291908181526020018280546106b890612fd6565b80156107055780601f106106da57610100808354040283529160200191610705565b820191906000526020600020905b8154815290600101906020018083116106e857829003601f168201915b5050505050905090565b600061071a82610ea9565b6007600083815260200190815260200160002060009054906101000a900473ffffffffffffffffffffffffffffffffffffffff169050919050565b6000610760826109c7565b90508073ffffffffffffffffffffffffffffffffffffffff168373ffffffffffffffffffffffffffffffffffffffff16036107d0576040517f08c379a00000000000000000000000000000000000000000000000000000000081526004016107c790613079565b60405180910390fd5b8073ffffffffffffffffffffffffffffffffffffffff166107ef610ef4565b73ffffffffffffffffffffffffffffffffffffffff16148061081e575061081d81610818610ef4565b610cfa565b5b61085d576040517f08c379a00000000000000000000000000000000000000000000000000000000081526004016108549061310b565b60405180910390fd5b6108678383610efc565b505050565b61087d610877610ef4565b82610fb5565b6108bc576040517f08c379a00000000000000000000000000000000000000000000000000000000081526004016108b39061319d565b60405180910390fd5b6108c783838361104a565b505050565b6000600260008373ffffffffffffffffffffffffffffffffffffffff1673ffffffffffffffffffffffffffffffffffffffff16815260200190815260200160002060009054906101000a900460ff169050919050565b61092a611343565b6109326113c1565b565b61094f83838360405180602001604052806000815250610bfc565b505050565b61096561095f610ef4565b82610fb5565b6109a4576040517f08c379a000000000000000000000000000000000000000000000000000000000815260040161099b9061319d565b60405180910390fd5b6109ad81611424565b50565b6000600a60009054906101000a900460ff16905090565b6000806109d383611430565b9050600073ffffffffffffffffffffffffffffffffffffffff168173ffffffffffffffffffffffffffffffffffffffff1603610a44576040517f08c379a0000000000000000000000000000000000000000000000000000000008152600401610a3b90613209565b60405180910390fd5b80915050919050565b60008073ffffffffffffffffffffffffffffffffffffffff168273ffffffffffffffffffffffffffffffffffffffff1603610abd576040517f08c379a0000000000000000000000000000000000000000000000000000000008152600401610ab49061329b565b60405180910390fd5b600660008373ffffffffffffffffffffffffffffffffffffffff1673ffffffffffffffffffffffffffffffffffffffff168152602001908152602001600020549050919050565b610b0c611343565b610b16600061146d565b565b610b20611343565b610b28611533565b565b6000600a60019054906101000a900473ffffffffffffffffffffffffffffffffffffffff16905090565b606060048054610b6390612fd6565b80601f0160208091040260200160405190810160405280929190818152602001828054610b8f90612fd6565b8015610bdc5780601f10610bb157610100808354040283529160200191610bdc565b820191906000526020600020905b815481529060010190602001808311610bbf57829003601f168201915b5050505050905090565b610bf8610bf1610ef4565b8383611596565b5050565b610c0d610c07610ef4565b83610fb5565b610c4c576040517f08c379a0000000000000000000000000000000000000000000000000000000008152600401610c439061319d565b60405180910390fd5b610c5884848484611702565b50505050565b6060610c698261175e565b9050919050565b3373ffffffffffffffffffffffffffffffffffffffff16610c90826109c7565b73ffffffffffffffffffffffffffffffffffffffff1614610ce6576040517f08c379a0000000000000000000000000000000000000000000000000000000008152600401610cdd9061332d565b60405180910390fd5b610cee611870565b610cf781611424565b50565b6000600860008473ffffffffffffffffffffffffffffffffffffffff1673ffffffffffffffffffffffffffffffffffffffff16815260200190815260200160002060008373ffffffffffffffffffffffffffffffffffffffff1673ffffffffffffffffffffffffffffffffffffffff16815260200190815260200160002060009054906101000a900460ff16905092915050565b600d6020528060005260406000206000915090505481565b610daf816119e9565b610db833611ba5565b5050565b610dc4611343565b600073ffffffffffffffffffffffffffffffffffffffff168173ffffffffffffffffffffffffffffffffffffffff1603610e33576040517f08c379a0000000000000000000000000000000000000000000000000000000008152600401610e2a906133bf565b60405180910390fd5b610e3c8161146d565b50565b60007f01ffc9a7000000000000000000000000000000000000000000000000000000007bffffffffffffffffffffffffffffffffffffffffffffffffffffffff1916827bffffffffffffffffffffffffffffffffffffffffffffffffffffffff1916149050919050565b610eb281611d19565b610ef1576040517f08c379a0000000000000000000000000000000000000000000000000000000008152600401610ee890613209565b60405180910390fd5b50565b600033905090565b816007600083815260200190815260200160002060006101000a81548173ffffffffffffffffffffffffffffffffffffffff021916908373ffffffffffffffffffffffffffffffffffffffff160217905550808273ffffffffffffffffffffffffffffffffffffffff16610f6f836109c7565b73ffffffffffffffffffffffffffffffffffffffff167f8c5be1e5ebec7d5bd14f71427d1e84f3dd0314c0f7b2291e5b200ac8c7c3b92560405160405180910390a45050565b600080610fc1836109c7565b90508073ffffffffffffffffffffffffffffffffffffffff168473ffffffffffffffffffffffffffffffffffffffff16148061100357506110028185610cfa565b5b8061104157508373ffffffffffffffffffffffffffffffffffffffff166110298461070f565b73ffffffffffffffffffffffffffffffffffffffff16145b91505092915050565b8273ffffffffffffffffffffffffffffffffffffffff1661106a826109c7565b73ffffffffffffffffffffffffffffffffffffffff16146110c0576040517f08c379a00000000000000000000000000000000000000000000000000000000081526004016110b790613451565b60405180910390fd5b600073ffffffffffffffffffffffffffffffffffffffff168273ffffffffffffffffffffffffffffffffffffffff160361112f576040517f08c379a0000000000000000000000000000000000000000000000000000000008152600401611126906134e3565b60405180910390fd5b61113c8383836001611d5a565b8273ffffffffffffffffffffffffffffffffffffffff1661115c826109c7565b73ffffffffffffffffffffffffffffffffffffffff16146111b2576040517f08c379a00000000000000000000000000000000000000000000000000000000081526004016111a990613451565b60405180910390fd5b6007600082815260200190815260200160002060006101000a81549073ffffffffffffffffffffffffffffffffffffffff02191690556001600660008573ffffffffffffffffffffffffffffffffffffffff1673ffffffffffffffffffffffffffffffffffffffff168152602001908152602001600020600082825403925050819055506001600660008473ffffffffffffffffffffffffffffffffffffffff1673ffffffffffffffffffffffffffffffffffffffff16815260200190815260200160002060008282540192505081905550816005600083815260200190815260200160002060006101000a81548173ffffffffffffffffffffffffffffffffffffffff021916908373ffffffffffffffffffffffffffffffffffffffff160217905550808273ffffffffffffffffffffffffffffffffffffffff168473ffffffffffffffffffffffffffffffffffffffff167fddf252ad1be2c89b69c2b068fc378daa952ba7f163c4a11628f55a4df523b3ef60405160405180910390a461133e8383836001611e1a565b505050565b61134b610ef4565b73ffffffffffffffffffffffffffffffffffffffff16611369610b2a565b73ffffffffffffffffffffffffffffffffffffffff16146113bf576040517f08c379a00000000000000000000000000000000000000000000000000000000081526004016113b69061354f565b60405180910390fd5b565b6113c9611e20565b6000600a60006101000a81548160ff0219169083151502179055507f5db9ee0a495bf2e6ff9c91a7834c1ba4fdd244a5e8aa4e537bd38aeae4b073aa61140d610ef4565b60405161141a9190612b28565b60405180910390a1565b61142d81611e69565b50565b60006005600083815260200190815260200160002060009054906101000a900473ffffffffffffffffffffffffffffffffffffffff169050919050565b6000600a60019054906101000a900473ffffffffffffffffffffffffffffffffffffffff16905081600a60016101000a81548173ffffffffffffffffffffffffffffffffffffffff021916908373ffffffffffffffffffffffffffffffffffffffff1602179055508173ffffffffffffffffffffffffffffffffffffffff168173ffffffffffffffffffffffffffffffffffffffff167f8be0079c531659141344cd1fd0a4f28419497f9722a3daafe3b4186f6b6457e060405160405180910390a35050565b61153b611ebc565b6001600a60006101000a81548160ff0219169083151502179055507f62e78cea01bee320cd4e420270b5ea74000d11b0c9f74754ebdbfc544b05a25861157f610ef4565b60405161158c9190612b28565b60405180910390a1565b8173ffffffffffffffffffffffffffffffffffffffff168373ffffffffffffffffffffffffffffffffffffffff1603611604576040517f08c379a00000000000000000000000000000000000000000000000000000000081526004016115fb906135bb565b60405180910390fd5b80600860008573ffffffffffffffffffffffffffffffffffffffff1673ffffffffffffffffffffffffffffffffffffffff16815260200190815260200160002060008473ffffffffffffffffffffffffffffffffffffffff1673ffffffffffffffffffffffffffffffffffffffff16815260200190815260200160002060006101000a81548160ff0219169083151502179055508173ffffffffffffffffffffffffffffffffffffffff168373ffffffffffffffffffffffffffffffffffffffff167f17307eab39ab6107e8899845ad3d59bd9653f200f220920489ca2b5937696c31836040516116f591906128ff565b60405180910390a3505050565b61170d84848461104a565b61171984848484611f06565b611758576040517f08c379a000000000000000000000000000000000000000000000000000000000815260040161174f9061364d565b60405180910390fd5b50505050565b606061176982610ea9565b600060096000848152602001908152602001600020805461178990612fd6565b80601f01602080910402602001604051908101604052809291908181526020018280546117b590612fd6565b80156118025780601f106117d757610100808354040283529160200191611802565b820191906000526020600020905b8154815290600101906020018083116117e557829003601f168201915b50505050509050600061181361208d565b9050600081510361182857819250505061186b565b60008251111561185d5780826040516020016118459291906136a9565b6040516020818303038152906040529250505061186b565b611866846120ad565b925050505b919050565b600260003373ffffffffffffffffffffffffffffffffffffffff1673ffffffffffffffffffffffffffffffffffffffff16815260200190815260200160002060009054906101000a900460ff166118fe57336040517f3eb427700000000000000000000000000000000000000000000000000000000081526004016118f59190612b28565b60405180910390fd5b6000600260003373ffffffffffffffffffffffffffffffffffffffff1673ffffffffffffffffffffffffffffffffffffffff16815260200190815260200160002060006101000a81548160ff021916908315150217905550600160003373ffffffffffffffffffffffffffffffffffffffff1673ffffffffffffffffffffffffffffffffffffffff168152602001908152602001600020600080820160006119a691906127ee565b600182016000905550507fab1615e4137dbb2f3ecccb3bcdb710a7ffc83f1d8068560f78a0875595487843336040516119df9190612b28565b60405180910390a1565b600260003373ffffffffffffffffffffffffffffffffffffffff1673ffffffffffffffffffffffffffffffffffffffff16815260200190815260200160002060009054906101000a900460ff1615611a6d576040517f4267e80300000000000000000000000000000000000000000000000000000000815260040160405180910390fd5b6040518060400160405280828152602001600054815250600160003373ffffffffffffffffffffffffffffffffffffffff1673ffffffffffffffffffffffffffffffffffffffff1681526020019081526020016000206000820151816000019081611ad89190613879565b50602082015181600101559050506001600260003373ffffffffffffffffffffffffffffffffffffffff1673ffffffffffffffffffffffffffffffffffffffff16815260200190815260200160002060006101000a81548160ff0219169083151502179055506000808154611b4c9061397a565b9190508190555080604051611b6191906139c2565b60405180910390207f667600c588e51c7924add0940a265372e17e3dcc7a8402745aa7ad8d58f392d2600054604051611b9a9190612c3e565b60405180910390a250565b60606000600c8054905067ffffffffffffffff811115611bc857611bc7612ccf565b5b604051908082528060200260200182016040528015611bf65781602001602082028036833780820191505090505b50905060005b600c80549050811015611d0f576000611c15600b612115565b9050611c218582612123565b611cd181600c8481548110611c3957611c386139d9565b5b906000526020600020018054611c4e90612fd6565b80601f0160208091040260200160405190810160405280929190818152602001828054611c7a90612fd6565b8015611cc75780601f10611c9c57610100808354040283529160200191611cc7565b820191906000526020600020905b815481529060010190602001808311611caa57829003601f168201915b5050505050612141565b80838381518110611ce557611ce46139d9565b5b602002602001018181525050611cfb600b6121ae565b508080611d079061397a565b915050611bfc565b5080915050919050565b60008073ffffffffffffffffffffffffffffffffffffffff16611d3b83611430565b73ffffffffffffffffffffffffffffffffffffffff1614159050919050565b611d62611ebc565b600073ffffffffffffffffffffffffffffffffffffffff168473ffffffffffffffffffffffffffffffffffffffff161480611dc95750600073ffffffffffffffffffffffffffffffffffffffff168373ffffffffffffffffffffffffffffffffffffffff16145b611e08576040517f08c379a0000000000000000000000000000000000000000000000000000000008152600401611dff90613aa0565b60405180910390fd5b611e14848484846121c4565b50505050565b50505050565b611e286109b0565b611e67576040517f08c379a0000000000000000000000000000000000000000000000000000000008152600401611e5e90613b0c565b60405180910390fd5b565b611e72816121ca565b6000600960008381526020019081526020016000208054611e9290612fd6565b905014611eb957600960008281526020019081526020016000206000611eb891906127ee565b5b50565b611ec46109b0565b15611f04576040517f08c379a0000000000000000000000000000000000000000000000000000000008152600401611efb90613b78565b60405180910390fd5b565b6000611f278473ffffffffffffffffffffffffffffffffffffffff16612318565b15612080578373ffffffffffffffffffffffffffffffffffffffff1663150b7a02611f50610ef4565b8786866040518563ffffffff1660e01b8152600401611f729493929190613bed565b6020604051808303816000875af1925050508015611fae57506040513d601f19601f82011682018060405250810190611fab9190613c4e565b60015b612030573d8060008114611fde576040519150601f19603f3d011682016040523d82523d6000602084013e611fe3565b606091505b506000815103612028576040517f08c379a000000000000000000000000000000000000000000000000000000000815260040161201f9061364d565b60405180910390fd5b805181602001fd5b63150b7a0260e01b7bffffffffffffffffffffffffffffffffffffffffffffffffffffffff1916817bffffffffffffffffffffffffffffffffffffffffffffffffffffffff191614915050612085565b600190505b949350505050565b6060604051806060016040528060228152602001613e1560229139905090565b60606120b882610ea9565b60006120c261208d565b905060008151116120e2576040518060200160405280600081525061210d565b806120ec8461233b565b6040516020016120fd9291906136a9565b6040516020818303038152906040525b915050919050565b600081600001549050919050565b61213d828260405180602001604052806000815250612409565b5050565b61214a82611d19565b612189576040517f08c379a000000000000000000000000000000000000000000000000000000000815260040161218090613ced565b60405180910390fd5b806009600084815260200190815260200160002090816121a99190613879565b505050565b6001816000016000828254019250508190555050565b50505050565b60006121d5826109c7565b90506121e5816000846001611d5a565b6121ee826109c7565b90506007600083815260200190815260200160002060006101000a81549073ffffffffffffffffffffffffffffffffffffffff02191690556001600660008373ffffffffffffffffffffffffffffffffffffffff1673ffffffffffffffffffffffffffffffffffffffff168152602001908152602001600020600082825403925050819055506005600083815260200190815260200160002060006101000a81549073ffffffffffffffffffffffffffffffffffffffff021916905581600073ffffffffffffffffffffffffffffffffffffffff168273ffffffffffffffffffffffffffffffffffffffff167fddf252ad1be2c89b69c2b068fc378daa952ba7f163c4a11628f55a4df523b3ef60405160405180910390a4612314816000846001611e1a565b5050565b6000808273ffffffffffffffffffffffffffffffffffffffff163b119050919050565b60606000600161234a84612464565b01905060008167ffffffffffffffff81111561236957612368612ccf565b5b6040519080825280601f01601f19166020018201604052801561239b5781602001600182028036833780820191505090505b509050600082602001820190505b6001156123fe578080600190039150507f3031323334353637383961626364656600000000000000000000000000000000600a86061a8153600a85816123f2576123f1613d0d565b5b049450600085036123a9575b819350505050919050565b61241383836125b7565b6124206000848484611f06565b61245f576040517f08c379a00000000000000000000000000000000000000000000000000000000081526004016124569061364d565b60405180910390fd5b505050565b600080600090507a184f03e93ff9f4daa797ed6e38ed64bf6a1f01000000000000000083106124c2577a184f03e93ff9f4daa797ed6e38ed64bf6a1f01000000000000000083816124b8576124b7613d0d565b5b0492506040810190505b6d04ee2d6d415b85acef810000000083106124ff576d04ee2d6d415b85acef810000000083816124f5576124f4613d0d565b5b0492506020810190505b662386f26fc10000831061252e57662386f26fc10000838161252457612523613d0d565b5b0492506010810190505b6305f5e1008310612557576305f5e100838161254d5761254c613d0d565b5b0492506008810190505b612710831061257c57612710838161257257612571613d0d565b5b0492506004810190505b6064831061259f576064838161259557612594613d0d565b5b0492506002810190505b600a83106125ae576001810190505b80915050919050565b600073ffffffffffffffffffffffffffffffffffffffff168273ffffffffffffffffffffffffffffffffffffffff1603612626576040517f08c379a000000000000000000000000000000000000000000000000000000000815260040161261d90613d88565b60405180910390fd5b61262f81611d19565b1561266f576040517f08c379a000000000000000000000000000000000000000000000000000000000815260040161266690613df4565b60405180910390fd5b61267d600083836001611d5a565b61268681611d19565b156126c6576040517f08c379a00000000000000000000000000000000000000000000000000000000081526004016126bd90613df4565b60405180910390fd5b6001600660008473ffffffffffffffffffffffffffffffffffffffff1673ffffffffffffffffffffffffffffffffffffffff16815260200190815260200160002060008282540192505081905550816005600083815260200190815260200160002060006101000a81548173ffffffffffffffffffffffffffffffffffffffff021916908373ffffffffffffffffffffffffffffffffffffffff160217905550808273ffffffffffffffffffffffffffffffffffffffff16600073ffffffffffffffffffffffffffffffffffffffff167fddf252ad1be2c89b69c2b068fc378daa952ba7f163c4a11628f55a4df523b3ef60405160405180910390a46127d0600083836001611e1a565b5050565b604051806040016040528060608152602001600081525090565b5080546127fa90612fd6565b6000825580601f1061280c575061282b565b601f01602090049060005260206000209081019061282a919061282e565b5b50565b5b8082111561284757600081600090555060010161282f565b5090565b6000604051905090565b600080fd5b600080fd5b60007fffffffff0000000000000000000000000000000000000000000000000000000082169050919050565b6128948161285f565b811461289f57600080fd5b50565b6000813590506128b18161288b565b92915050565b6000602082840312156128cd576128cc612855565b5b60006128db848285016128a2565b91505092915050565b60008115159050919050565b6128f9816128e4565b82525050565b600060208201905061291460008301846128f0565b92915050565b600081519050919050565b600082825260208201905092915050565b60005b83811015612954578082015181840152602081019050612939565b60008484015250505050565b6000601f19601f8301169050919050565b600061297c8261291a565b6129868185612925565b9350612996818560208601612936565b61299f81612960565b840191505092915050565b6000819050919050565b6129bd816129aa565b82525050565b600060408301600083015184820360008601526129e08282612971565b91505060208301516129f560208601826129b4565b508091505092915050565b60006020820190508181036000830152612a1a81846129c3565b905092915050565b600082825260208201905092915050565b6000612a3e8261291a565b612a488185612a22565b9350612a58818560208601612936565b612a6181612960565b840191505092915050565b60006020820190508181036000830152612a868184612a33565b905092915050565b612a97816129aa565b8114612aa257600080fd5b50565b600081359050612ab481612a8e565b92915050565b600060208284031215612ad057612acf612855565b5b6000612ade84828501612aa5565b91505092915050565b600073ffffffffffffffffffffffffffffffffffffffff82169050919050565b6000612b1282612ae7565b9050919050565b612b2281612b07565b82525050565b6000602082019050612b3d6000830184612b19565b92915050565b612b4c81612b07565b8114612b5757600080fd5b50565b600081359050612b6981612b43565b92915050565b60008060408385031215612b8657612b85612855565b5b6000612b9485828601612b5a565b9250506020612ba585828601612aa5565b9150509250929050565b600080600060608486031215612bc857612bc7612855565b5b6000612bd686828701612b5a565b9350506020612be786828701612b5a565b9250506040612bf886828701612aa5565b9150509250925092565b600060208284031215612c1857612c17612855565b5b6000612c2684828501612b5a565b91505092915050565b612c38816129aa565b82525050565b6000602082019050612c536000830184612c2f565b92915050565b612c62816128e4565b8114612c6d57600080fd5b50565b600081359050612c7f81612c59565b92915050565b60008060408385031215612c9c57612c9b612855565b5b6000612caa85828601612b5a565b9250506020612cbb85828601612c70565b9150509250929050565b600080fd5b600080fd5b7f4e487b7100000000000000000000000000000000000000000000000000000000600052604160045260246000fd5b612d0782612960565b810181811067ffffffffffffffff82111715612d2657612d25612ccf565b5b80604052505050565b6000612d3961284b565b9050612d458282612cfe565b919050565b600067ffffffffffffffff821115612d6557612d64612ccf565b5b612d6e82612960565b9050602081019050919050565b82818337600083830152505050565b6000612d9d612d9884612d4a565b612d2f565b905082815260208101848484011115612db957612db8612cca565b5b612dc4848285612d7b565b509392505050565b600082601f830112612de157612de0612cc5565b5b8135612df1848260208601612d8a565b91505092915050565b60008060008060808587031215612e1457612e13612855565b5b6000612e2287828801612b5a565b9450506020612e3387828801612b5a565b9350506040612e4487828801612aa5565b925050606085013567ffffffffffffffff811115612e6557612e6461285a565b5b612e7187828801612dcc565b91505092959194509250565b60008060408385031215612e9457612e93612855565b5b6000612ea285828601612b5a565b9250506020612eb385828601612b5a565b9150509250929050565b600067ffffffffffffffff821115612ed857612ed7612ccf565b5b612ee182612960565b9050602081019050919050565b6000612f01612efc84612ebd565b612d2f565b905082815260208101848484011115612f1d57612f1c612cca565b5b612f28848285612d7b565b509392505050565b600082601f830112612f4557612f44612cc5565b5b8135612f55848260208601612eee565b91505092915050565b600060208284031215612f7457612f73612855565b5b600082013567ffffffffffffffff811115612f9257612f9161285a565b5b612f9e84828501612f30565b91505092915050565b7f4e487b7100000000000000000000000000000000000000000000000000000000600052602260045260246000fd5b60006002820490506001821680612fee57607f821691505b60208210810361300157613000612fa7565b5b50919050565b7f4552433732313a20617070726f76616c20746f2063757272656e74206f776e6560008201527f7200000000000000000000000000000000000000000000000000000000000000602082015250565b6000613063602183612a22565b915061306e82613007565b604082019050919050565b6000602082019050818103600083015261309281613056565b9050919050565b7f4552433732313a20617070726f76652063616c6c6572206973206e6f7420746f60008201527f6b656e206f776e6572206f7220617070726f76656420666f7220616c6c000000602082015250565b60006130f5603d83612a22565b915061310082613099565b604082019050919050565b60006020820190508181036000830152613124816130e8565b9050919050565b7f4552433732313a2063616c6c6572206973206e6f7420746f6b656e206f776e6560008201527f72206f7220617070726f76656400000000000000000000000000000000000000602082015250565b6000613187602d83612a22565b91506131928261312b565b604082019050919050565b600060208201905081810360008301526131b68161317a565b9050919050565b7f4552433732313a20696e76616c696420746f6b656e2049440000000000000000600082015250565b60006131f3601883612a22565b91506131fe826131bd565b602082019050919050565b60006020820190508181036000830152613222816131e6565b9050919050565b7f4552433732313a2061646472657373207a65726f206973206e6f74206120766160008201527f6c6964206f776e65720000000000000000000000000000000000000000000000602082015250565b6000613285602983612a22565b915061329082613229565b604082019050919050565b600060208201905081810360008301526132b481613278565b9050919050565b7f4f6e6c7920746865206f776e6572206f662074686520746f6b656e2063616e2060008201527f6275726e2069742e000000000000000000000000000000000000000000000000602082015250565b6000613317602883612a22565b9150613322826132bb565b604082019050919050565b600060208201905081810360008301526133468161330a565b9050919050565b7f4f776e61626c653a206e6577206f776e657220697320746865207a65726f206160008201527f6464726573730000000000000000000000000000000000000000000000000000602082015250565b60006133a9602683612a22565b91506133b48261334d565b604082019050919050565b600060208201905081810360008301526133d88161339c565b9050919050565b7f4552433732313a207472616e736665722066726f6d20696e636f72726563742060008201527f6f776e6572000000000000000000000000000000000000000000000000000000602082015250565b600061343b602583612a22565b9150613446826133df565b604082019050919050565b6000602082019050818103600083015261346a8161342e565b9050919050565b7f4552433732313a207472616e7366657220746f20746865207a65726f2061646460008201527f7265737300000000000000000000000000000000000000000000000000000000602082015250565b60006134cd602483612a22565b91506134d882613471565b604082019050919050565b600060208201905081810360008301526134fc816134c0565b9050919050565b7f4f776e61626c653a2063616c6c6572206973206e6f7420746865206f776e6572600082015250565b6000613539602083612a22565b915061354482613503565b602082019050919050565b600060208201905081810360008301526135688161352c565b9050919050565b7f4552433732313a20617070726f766520746f2063616c6c657200000000000000600082015250565b60006135a5601983612a22565b91506135b08261356f565b602082019050919050565b600060208201905081810360008301526135d481613598565b9050919050565b7f4552433732313a207472616e7366657220746f206e6f6e20455243373231526560008201527f63656976657220696d706c656d656e7465720000000000000000000000000000602082015250565b6000613637603283612a22565b9150613642826135db565b604082019050919050565b600060208201905081810360008301526136668161362a565b9050919050565b600081905092915050565b60006136838261291a565b61368d818561366d565b935061369d818560208601612936565b80840191505092915050565b60006136b58285613678565b91506136c18284613678565b91508190509392505050565b60008190508160005260206000209050919050565b60006020601f8301049050919050565b600082821b905092915050565b60006008830261372f7fffffffffffffffffffffffffffffffffffffffffffffffffffffffffffffffff826136f2565b61373986836136f2565b95508019841693508086168417925050509392505050565b6000819050919050565b600061377661377161376c846129aa565b613751565b6129aa565b9050919050565b6000819050919050565b6137908361375b565b6137a461379c8261377d565b8484546136ff565b825550505050565b600090565b6137b96137ac565b6137c4818484613787565b505050565b5b818110156137e8576137dd6000826137b1565b6001810190506137ca565b5050565b601f82111561382d576137fe816136cd565b613807846136e2565b81016020851015613816578190505b61382a613822856136e2565b8301826137c9565b50505b505050565b600082821c905092915050565b600061385060001984600802613832565b1980831691505092915050565b6000613869838361383f565b9150826002028217905092915050565b6138828261291a565b67ffffffffffffffff81111561389b5761389a612ccf565b5b6138a58254612fd6565b6138b08282856137ec565b600060209050601f8311600181146138e357600084156138d1578287015190505b6138db858261385d565b865550613943565b601f1984166138f1866136cd565b60005b82811015613919578489015182556001820191506020850194506020810190506138f4565b868310156139365784890151613932601f89168261383f565b8355505b6001600288020188555050505b505050505050565b7f4e487b7100000000000000000000000000000000000000000000000000000000600052601160045260246000fd5b6000613985826129aa565b91507fffffffffffffffffffffffffffffffffffffffffffffffffffffffffffffffff82036139b7576139b661394b565b5b600182019050919050565b60006139ce8284613678565b915081905092915050565b7f4e487b7100000000000000000000000000000000000000000000000000000000600052603260045260246000fd5b7f54686973206120536f756c626f756e6420746f6b656e2e2049742063616e6e6f60008201527f74206265207472616e736665727265642e2049742063616e206f6e6c7920626560208201527f206275726e65642062792074686520746f6b656e206f776e65722e0000000000604082015250565b6000613a8a605b83612a22565b9150613a9582613a08565b606082019050919050565b60006020820190508181036000830152613ab981613a7d565b9050919050565b7f5061757361626c653a206e6f7420706175736564000000000000000000000000600082015250565b6000613af6601483612a22565b9150613b0182613ac0565b602082019050919050565b60006020820190508181036000830152613b2581613ae9565b9050919050565b7f5061757361626c653a2070617573656400000000000000000000000000000000600082015250565b6000613b62601083612a22565b9150613b6d82613b2c565b602082019050919050565b60006020820190508181036000830152613b9181613b55565b9050919050565b600081519050919050565b600082825260208201905092915050565b6000613bbf82613b98565b613bc98185613ba3565b9350613bd9818560208601612936565b613be281612960565b840191505092915050565b6000608082019050613c026000830187612b19565b613c0f6020830186612b19565b613c1c6040830185612c2f565b8181036060830152613c2e8184613bb4565b905095945050505050565b600081519050613c488161288b565b92915050565b600060208284031215613c6457613c63612855565b5b6000613c7284828501613c39565b91505092915050565b7f45524337323155524953746f726167653a2055524920736574206f66206e6f6e60008201527f6578697374656e7420746f6b656e000000000000000000000000000000000000602082015250565b6000613cd7602e83612a22565b9150613ce282613c7b565b604082019050919050565b60006020820190508181036000830152613d0681613cca565b9050919050565b7f4e487b7100000000000000000000000000000000000000000000000000000000600052601260045260246000fd5b7f4552433732313a206d696e7420746f20746865207a65726f2061646472657373600082015250565b6000613d72602083612a22565b9150613d7d82613d3c565b602082019050919050565b60006020820190508181036000830152613da181613d65565b9050919050565b7f4552433732313a20746f6b656e20616c7265616479206d696e74656400000000600082015250565b6000613dde601c83612a22565b9150613de982613da8565b602082019050919050565b60006020820190508181036000830152613e0d81613dd1565b905091905056fe68747470733a2f2f676174657761792e70696e6174612e636c6f75642f697066732fa264697066735822122017f78b4bf25cb38374d951509f3f50e048ccec54f6f860dde6e9e0a8c084e80664736f6c63430008120033516d644359764379564a6a754c7a4a70504c61434d555345623655443833455442774834756143554b6a79336f692f62616c6c5f6d657461646174612e6a736f6e516d644359764379564a6a754c7a4a70504c61434d555345623655443833455442774834756143554b6a79336f692f6261745f6d657461646174612e6a736f6e516d644359764379564a6a754c7a4a70504c61434d555345623655443833455442774834756143554b6a79336f692f73686f655f6d657461646174612e6a736f6e516d555154665979677735703844755a6f6a76646a3538576934517176555279334b316b66716b3631626a594554",
  "devdoc": {
    "events": {
      "Approval(address,address,uint256)": {
        "details": "Emitted when `owner` enables `approved` to manage the `tokenId` token."
      },
      "ApprovalForAll(address,address,bool)": {
        "details": "Emitted when `owner` enables or disables (`approved`) `operator` to manage all of its assets."
      },
      "Paused(address)": {
        "details": "Emitted when the pause is triggered by `account`."
      },
      "Transfer(address,address,uint256)": {
        "details": "Emitted when `tokenId` token is transferred from `from` to `to`."
      },
      "Unpaused(address)": {
        "details": "Emitted when the pause is lifted by `account`."
      }
    },
    "kind": "dev",
    "methods": {
      "_getPlayerDetails()": {
        "details": "return the details of the player if registered"
      },
      "approve(address,uint256)": {
        "details": "See {IERC721-approve}."
      },
      "balanceOf(address)": {
        "details": "See {IERC721-balanceOf}."
      },
      "burn(uint256)": {
        "details": "Burns `tokenId`. See {ERC721-_burn}. Requirements: - The caller must own `tokenId` or be an approved operator."
      },
      "getApproved(uint256)": {
        "details": "See {IERC721-getApproved}."
      },
      "isApprovedForAll(address,address)": {
        "details": "See {IERC721-isApprovedForAll}."
      },
      "name()": {
        "details": "See {IERC721Metadata-name}."
      },
      "owner()": {
        "details": "Returns the address of the current owner."
      },
      "ownerOf(uint256)": {
        "details": "See {IERC721-ownerOf}."
      },
      "paused()": {
        "details": "Returns true if the contract is paused, and false otherwise."
      },
      "renounceOwnership()": {
        "details": "Leaves the contract without owner. It will not be possible to call `onlyOwner` functions anymore. Can only be called by the current owner. NOTE: Renouncing ownership will leave the contract without an owner, thereby removing any functionality that is only available to the owner."
      },
      "safeTransferFrom(address,address,uint256)": {
        "details": "See {IERC721-safeTransferFrom}."
      },
      "safeTransferFrom(address,address,uint256,bytes)": {
        "details": "See {IERC721-safeTransferFrom}."
      },
      "setApprovalForAll(address,bool)": {
        "details": "See {IERC721-setApprovalForAll}."
      },
      "supportsInterface(bytes4)": {
        "details": "See {IERC165-supportsInterface}."
      },
      "symbol()": {
        "details": "See {IERC721Metadata-symbol}."
      },
      "transferFrom(address,address,uint256)": {
        "details": "See {IERC721-transferFrom}."
      },
      "transferOwnership(address)": {
        "details": "Transfers ownership of the contract to a new account (`newOwner`). Can only be called by the current owner."
      }
    },
    "version": 1
  },
  "userdoc": {
    "kind": "user",
    "methods": {},
    "version": 1
  },
  "storageLayout": {
    "storage": [
      {
        "astId": 3049,
        "contract": "contracts/Metaverse.sol:Metaverse",
        "label": "userId",
        "offset": 0,
        "slot": "0",
        "type": "t_uint256"
      },
      {
        "astId": 3059,
        "contract": "contracts/Metaverse.sol:Metaverse",
        "label": "playerDetails",
        "offset": 0,
        "slot": "1",
        "type": "t_mapping(t_address,t_struct(Player)3054_storage)"
      },
      {
        "astId": 3063,
        "contract": "contracts/Metaverse.sol:Metaverse",
        "label": "isPlayer",
        "offset": 0,
        "slot": "2",
        "type": "t_mapping(t_address,t_bool)"
      },
      {
        "astId": 246,
        "contract": "contracts/Metaverse.sol:Metaverse",
        "label": "_name",
        "offset": 0,
        "slot": "3",
        "type": "t_string_storage"
      },
      {
        "astId": 248,
        "contract": "contracts/Metaverse.sol:Metaverse",
        "label": "_symbol",
        "offset": 0,
        "slot": "4",
        "type": "t_string_storage"
      },
      {
        "astId": 252,
        "contract": "contracts/Metaverse.sol:Metaverse",
        "label": "_owners",
        "offset": 0,
        "slot": "5",
        "type": "t_mapping(t_uint256,t_address)"
      },
      {
        "astId": 256,
        "contract": "contracts/Metaverse.sol:Metaverse",
        "label": "_balances",
        "offset": 0,
        "slot": "6",
        "type": "t_mapping(t_address,t_uint256)"
      },
      {
        "astId": 260,
        "contract": "contracts/Metaverse.sol:Metaverse",
        "label": "_tokenApprovals",
        "offset": 0,
        "slot": "7",
        "type": "t_mapping(t_uint256,t_address)"
      },
      {
        "astId": 266,
        "contract": "contracts/Metaverse.sol:Metaverse",
        "label": "_operatorApprovals",
        "offset": 0,
        "slot": "8",
        "type": "t_mapping(t_address,t_mapping(t_address,t_bool))"
      },
      {
        "astId": 1324,
        "contract": "contracts/Metaverse.sol:Metaverse",
        "label": "_tokenURIs",
        "offset": 0,
        "slot": "9",
        "type": "t_mapping(t_uint256,t_string_storage)"
      },
      {
        "astId": 130,
        "contract": "contracts/Metaverse.sol:Metaverse",
        "label": "_paused",
        "offset": 0,
        "slot": "10",
        "type": "t_bool"
      },
      {
        "astId": 7,
        "contract": "contracts/Metaverse.sol:Metaverse",
        "label": "_owner",
        "offset": 1,
        "slot": "10",
        "type": "t_address"
      },
      {
        "astId": 3196,
        "contract": "contracts/Metaverse.sol:Metaverse",
        "label": "_tokenIdCounter",
        "offset": 0,
        "slot": "11",
        "type": "t_struct(Counter)1821_storage"
      },
      {
        "astId": 3204,
        "contract": "contracts/Metaverse.sol:Metaverse",
        "label": "ipfsUri",
        "offset": 0,
        "slot": "12",
        "type": "t_array(t_string_storage)dyn_storage"
      },
      {
        "astId": 2984,
        "contract": "contracts/Metaverse.sol:Metaverse",
        "label": "waiting_time",
        "offset": 0,
        "slot": "13",
        "type": "t_mapping(t_address,t_uint256)"
      }
    ],
    "types": {
      "t_address": {
        "encoding": "inplace",
        "label": "address",
        "numberOfBytes": "20"
      },
      "t_array(t_string_storage)dyn_storage": {
        "base": "t_string_storage",
        "encoding": "dynamic_array",
        "label": "string[]",
        "numberOfBytes": "32"
      },
      "t_bool": {
        "encoding": "inplace",
        "label": "bool",
        "numberOfBytes": "1"
      },
      "t_mapping(t_address,t_bool)": {
        "encoding": "mapping",
        "key": "t_address",
        "label": "mapping(address => bool)",
        "numberOfBytes": "32",
        "value": "t_bool"
      },
      "t_mapping(t_address,t_mapping(t_address,t_bool))": {
        "encoding": "mapping",
        "key": "t_address",
        "label": "mapping(address => mapping(address => bool))",
        "numberOfBytes": "32",
        "value": "t_mapping(t_address,t_bool)"
      },
      "t_mapping(t_address,t_struct(Player)3054_storage)": {
        "encoding": "mapping",
        "key": "t_address",
        "label": "mapping(address => struct UserRegistration.Player)",
        "numberOfBytes": "32",
        "value": "t_struct(Player)3054_storage"
      },
      "t_mapping(t_address,t_uint256)": {
        "encoding": "mapping",
        "key": "t_address",
        "label": "mapping(address => uint256)",
        "numberOfBytes": "32",
        "value": "t_uint256"
      },
      "t_mapping(t_uint256,t_address)": {
        "encoding": "mapping",
        "key": "t_uint256",
        "label": "mapping(uint256 => address)",
        "numberOfBytes": "32",
        "value": "t_address"
      },
      "t_mapping(t_uint256,t_string_storage)": {
        "encoding": "mapping",
        "key": "t_uint256",
        "label": "mapping(uint256 => string)",
        "numberOfBytes": "32",
        "value": "t_string_storage"
      },
      "t_string_storage": {
        "encoding": "bytes",
        "label": "string",
        "numberOfBytes": "32"
      },
      "t_struct(Counter)1821_storage": {
        "encoding": "inplace",
        "label": "struct Counters.Counter",
        "members": [
          {
            "astId": 1820,
            "contract": "contracts/Metaverse.sol:Metaverse",
            "label": "_value",
            "offset": 0,
            "slot": "0",
            "type": "t_uint256"
          }
        ],
        "numberOfBytes": "32"
      },
      "t_struct(Player)3054_storage": {
        "encoding": "inplace",
        "label": "struct UserRegistration.Player",
        "members": [
          {
            "astId": 3051,
            "contract": "contracts/Metaverse.sol:Metaverse",
            "label": "username",
            "offset": 0,
            "slot": "0",
            "type": "t_string_storage"
          },
          {
            "astId": 3053,
            "contract": "contracts/Metaverse.sol:Metaverse",
            "label": "Id",
            "offset": 0,
            "slot": "1",
            "type": "t_uint256"
          }
        ],
        "numberOfBytes": "64"
      },
      "t_uint256": {
        "encoding": "inplace",
        "label": "uint256",
        "numberOfBytes": "32"
      }
    }
  }
}